:4000000000800020110000007D0200007D02000080B500AF47F2BC63C4F2000344F2FA62C4F2000212681A6000F02CF910B5054C237833B9044810B10448AFF3008001218F
:40004000217010BD788BFF1F000000003CE3000008B5064B1BB106480649AFF300800648016811B1054A02B1904708BD000000003CE300007C8BFF1F0881FF1F0000000047
:4000800084B080B483B000AF07F1100C8CE80F003B7C002B07D17B7CFB71FB79012B02D14FF00003BB7107F10C07BD4680BC04B0704700BF80B500AF62B600F041F840F296
:4000C000ED00C0F2000001F095FE4FF0010001F0B1FE01F0BDFE40F28100C0F2000000F079FE01F09FFE00F0D1FEFAE790B591B000AF0346FB77FB7F002B1CD0FB7F012B30
:4001000019D107F11003184601F0CAFE07F1240307F110021068516803C33B46184600F075F807F12C043B460FCB84E80F004FF0000387F83F3007F14407BD4690BD00BFD7
:4001400080B500AF00F0D0FB80BD00BF80B582B000AF00F021FC0346FB71FB79002B1FD048F6E443C1F6FF731B78632B18D848F6E443C1F6FF731B781A4648F6E843C1F63E
:40018000FF73F979995448F6E443C1F6FF731B7803F10103DAB248F6E443C1F6FF731A7007F10807BD4680BD90B589B002AF786039604FF00003BB7507F1080207F1080353
:4001C00003F1040307F1080101F10C0100914FF00001019138684EF24831C0F2000104F0DFFE0346DBB2BB75BB7D042B02D04FF00003BB757B681C4607F108030FCB84E885
:400200000F00786807F11C07BD4690BD90B587B000AF786048F6E443C1F6FF734FF000021A704FF47A7000F09FFC4FF0000000F039FC40F24D10C0F2000000F0D3FB4FF4AA
:40024000FA6000F091FC4FF0010000F02BFC00F0DDFB07F10803184648F6E841C1F6FF71FFF7A2FF7B681C4607F108030FCB84E80F00786807F11C07BD4690BD80B400AF37
:40028000FEE700BF80B586B000AF40F20103C0F200037B614EF64813C0F200033B6140F20103C0F200037B614EF64813C0F200033B613BE03B691B68FB603B695B68BB60F3
:4002C0003B699B683B604FF000037B600FE0FB681A68BB681A60BB6803F10403BB60FB6803F10403FB607B6803F104037B607A683B689A42EBD13B69DB683B604FF00003A2
:400300007B600BE0BB684FF000021A60BB6803F10403BB607B6803F104037B607A683B689A42EFD13B6903F110033B617B69002B0CBF00230123DBB27A6902F1FF327A612F
:40034000002BB7D104F0AEF9FFF7B4FEFEE700BF80B582B000AF4EF60C53CEF200034FF48062C0F2FA521A604EF61453CEF200034EF61452CEF20002126842F400721A6054
:400380004FF000037B6019E07B68032B07D840F20003C0F200037A6853F8223003E040F27D23C0F2000348F20002C1F6FF72796842F821307B6803F101037B607B682F2BA1
:4003C000E2D947F2BC63C4F200031B78DAB248F20413C1F6FF731A704EF60853CEF2000348F20002C1F6FF721A6000F05FF948F20013C1F6FF734FF000021A6007F108074E
:40040000BD4680BD80B582B000AF7860396078684FF000013A6804F099FA07F10807BD4680BD00BF80B584B000AFF860B9607A60F868B9687A6804F0DBF907F11007BD4606
:4004400080BD00BF80B483B000AF0346FB71FEE780B487B000AF786039604FF000033B614FF000037B612CE07B694FEA83037A68D3181B68BB60BB68FB73BB6823F0FF0366
:40048000BB6017E03B694FEA43033A68D3181B781A46BB68D3183A694FEA420239688A1852781A703B6903F101033B61FB7B03F1FF33FB73FB7B002BE4D17B6903F101034E
:4004C0007B617B69202BCFD907F11C07BD4680BC704700BF80B582B000AF4FF48143C4F200034FF019021A8044F28203C4F200034FF018021A7044F28403C4F200034FF0A3
:40050000F9021A8044F28603C4F200034FF019021A7044F28803C4F2000340F6C3121A8044F28A03C4F200034FF018021A704FF48643C4F200034FF002021A704FF0402318
:400540004FF008021A704FF48443C4F200034FF003021A7044F2A163C4F200034FF48472C4F600121278D2B21A7044F22223C4F200034FF008021A8044F22023C4F200033E
:4005800041F251221A804FF00003FB704FF019037B6019E0FB784FEA4303DAB244F22523C4F200031B78DBB203F00103DBB21343DBB203F00303FB704FF4F07000F0B4FA3E
:4005C0007B6803F1FF337B607B68002B02D0FB78032BDFD17B68002B03D14FF00300FFF731FF44F20403C4F200034FF480721A8044F20403C4F200034FF007021A7044F2D9
:400600000603C4F200034FF000021A7044F20803C4F200034FF048021A7044F20403C4F200034FF000021A7044F20103C4F200034FF002021A7044F2A233C4F2000344F2A5
:40064000A232C4F200021278D2B242F00702D2B21A7007F10807BD4680BD00BF80B483B000AF40F2CF13C4F600131B78FB7145F66E03C4F20003FA7902F00702D2B21A70BA
:4006800045F66F03C4F20003FA794FEA1212D2B21A7045F67603C4F200034FF044021A7007F10C07BD4680BC704700BF80B586B000AF72B644F2E863C4F2000344F2E862BE
:4006C000C4F200021278D2B242F00402D2B21A704FF00003FB7519E0FA7D13464FEA43039B184FEA43034EF25832C0F200029B183B613B691A683B699B889BB21046194606
:40070000FFF780FEFB7D03F10103FB75FB7D092BE2D94FF00003FB7523E0FA7D13464FEA83039B184FEA43034EF29432C0F200029B18FB60FB681B68BB60FB685B687B60BE
:40074000FB681A7A5B7A4FEA032313437B807B88B86879681A46FFF765FEFB7D03F10103FB75FB7D012BD8D94FF090404FF08401C4F60001FFF76CFE45F20303C4F2010326
:4007800045F20302C4F201021278D2B242F00202D2B21A7045F21303C4F2010345F21302C4F201021278D2B242F00202D2B21A7044F2A033C4F2000344F2A032C4F2000212
:4007C0001278D2B242F04002D2B21A7044F2C233C4F2000344F2C232C4F200021278D2B242F01002D2B21A704FF4A240C4F2000040F2CC51C4F600014FF00A02FFF712FE0D
:4008000045F2C210C4F200004FF4BB61C4F600014FF00802FFF706FE45F21010C4F200004FF4BC61C4F600014FF00A02FFF7FAFD45F22010C4F2000040F2EC51C4F60001F5
:400840004FF00A02FFF7EEFD45F23010C4F200004FF4BF61C4F600014FF00A02FFF7E2FD45F24210C4F2000040F20461C4F600014FF00802FFF7D6FD44F22233C4F20003FA
:4008800044F22232C4F200021278D2B242F00802D2B21A704FF49043C4F200034FF001021A70FFF717FE4FF49043C4F200034FF081021A704FF00403C4F208034FF0010294
:4008C0001A70FFF7CBFE44F2B030C4F2000044F2A031C4F200014FF00E02FFF7A3FD07F11807BD4680BD00BF80B500AF48F69433C1F6FF731B78002B08D100F00BF848F650
:400900009433C1F6FF734FF001021A7000F016F880BD00BF80B400AF46F28143C4F200034FF072021A7046F28243C4F200034FF020021A70BD4680BC704700BF80B582B06F
:4009400000AF00F0FBF80346FB7146F29143C4F2000346F29142C4F200021278D2B242F02002D2B21A7046F29243C4F2000346F29242C4F200021278D2B242F01002D2B2D8
:400980001A7000F0AFF8FB79184600F0DBF807F10807BD4680BD00BF80B483B000AF4FF00003FB7146F26243C4F200031B78BB71BB7903F02003002B0DD046F24243C4F29D
:4009C00000031B78FB71BB7903F01E03002B02D04FF00003FB71FB79184607F10C07BD4680BC704780B582B000AF786000F04EF8786800F017F84FF0070000F027F800F0E7
:400A000039F807F10807BD4680BD00BF80B500AF00F03CF840F27D20C0F2000000F002F880BD00BF80B485B000AF78604EF60853CEF200031B68FB60FB6803F144037A6860
:400A40001A6007F11407BD4680BC704780B483B000AF0346FB714EF20143CEF20003FA794FEA4212D2B21A7007F10C07BD4680BC704700BF80B400AF4FF46143CEF2000386
:400A80004FF002021A60BD4680BC704780B400AF4EF28013CEF200034FF002021A60BD4680BC704780B485B000AF0346FB714FF4A243C4F200031B78DBB223F00103FB7304
:400AC0004FF4A243C4F20003FA7902F00102D1B2FA7B0A43D2B21A7007F11407BD4680BC704700BF80B400AF44F2A233C4F2000344F2A232C4F200021278D2B242F00402E3
:400B0000D2B21A7044F2B233C4F2000344F2B232C4F200021278D2B242F00402D2B21A70BD4680BC704700BF0230800800F0058000BF013800467FF4FCAF7047EFF3108044
:400B400072B6704780F31088704700BFAFF3008080B483B000AF0346FB7101BE07F10C07BD4680BC704700BF80B582B000AF78600BE048F21813C1F6FF731B681846FFF76B
:400B8000D3FF7B68A3F500437B607B68B3F5004FEFD848F21013C1F6FF731B687A6802FB03F31846FFF7C0FF07F10807BD4680BD80B582B000AF0346FB80FA8848F2141334
:400BC000C1F6FF731B7803FB02F31846FFF7ACFF07F10807BD4680BD80B584B000AF03463960FB714EF60853CEF200031B68FB60FB791F2B03D94FF00000FFF7A9FFFB796F
:400C000003F01F0303F110034FEA8303FA68D3181B68BB60FB7903F01F0303F110034FEA8303FA68D3183A681A60BB68184607F11007BD4680BD00BF80B582B000AF024649
:400C40000B46FA71BB71BB79072B03D94FF00000FFF77EFFFB791F2B03D94FF00000FFF777FFFB7903F01F0303F1604303F56443BA794FEA4212D2B21A7007F10807BD46BC
:400C800080BD00BF80B500AF02F048FB0346002B07D102F0FDFA0346002B02D14FF0010301E04FF00003DBB2184680BD80B500AF00F0A4F900F080F902F0B2FB4FF0010359
:400CC000184680BD80B500AF4FF0010000F016FC4FF00E0000F012FC80BD00BF80B400AF49F20F23C1F6FF731B78002B02D04FF0010301E04FF000031846BD4680BC704729
:400D000080B500AF49F22223C1F6FF731B78002B0AD101F041F849F22223C1F6FF734FF001021A7003F0C0FA80BD00BF80B582B000AF02F07FF90346FB7149F22023C1F6DB
:400D4000FF731A88114649F20C13C1F6FF73F879585402F101039AB249F22023C1F6FF731A8007F10807BD4680BD00BF80B500AF02F08EFA0346002B14D04FF0010002F0F6
:400D8000ABFA49F22023C1F6FF731B88032B0FD902F052FB49F20C23C1F6FF734FF001021A7005E000F008F94FF0000002F094FA02F080FA80BD00BF80B500AF03F0BAFA08
:400DC00049F22223C1F6FF734FF000021A7003F0F1FA80BD80B582B000AF786049F21823C1F6FF737A681A6000F0D4F802F044FA40F62D50C0F2000002F0EAF940F66D5062
:400E0000C0F2000002F0D0FA03F07EFA03F092FA40F6B950C0F2000003F022FB00F0A8FA49F20C23C1F6FF734FF000021A7049F21D23C1F6FF734FF001021A7049F21C237F
:400E4000C1F6FF734FF000021A704FF0160000F031FB07F10807BD4680BD00BF80B500AF00F0A0FA80BD00BF80B500AF02F0E4FA02F07CF980BD00BF80B500AF02F096F921
:400E800002F0CEFA02F0E4FA80BD00BF80B500AFFFF7F8FE0346002B02D04FF0010331E049F20C23C1F6FF731B78002B0BD049F20C23C1F6FF734FF000021A70FFF7F6FECE
:400EC0004FF002031EE049F21D23C1F6FF731B78002B0BD049F21D23C1F6FF734FF000021A70FFF7EFFE4FF003030BE0FFF7F6FE0346002B04D0FFF703FF4FF0030301E0A1
:400F00004FF00003184680BD80B582B000AF78600B46FB70FB787868194600F031FB4FF00103184607F10807BD4680BD80B500AFFFF7A8FE0346002B02D04FF001030BE080
:400F400049F20C23C1F6FF731B78002B02D04FF0010301E04FF00003184680BD80B400AF49F20D23C1F6FF731B78032B02D14FF002030BE049F20D23C1F6FF731B78002BC1
:400F800002D14FF0000301E04FF001031846BD4680BC704780B500AF01F096FF4FF00100FFF7E2FD00F008F849F20E23C1F6FF734FF000021A7080BD80B483B000AF4FF043
:400FC0000003FB800BE0FA8849F20C13C1F6FF734FF000019954FB8803F10103FB80FB88FF2BF0D949F22023C1F6FF734FF000021A8007F10C07BD4680BC704780B5C2B0C0
:4010000000AF49F20C13C1F6FF731B787E2B40F09F8049F22023C1F6FF731B8803F1FF3249F20C13C1F6FF739B5C7E2B40F090804FF00103A7F806314FF00003A7F80431F2
:401040004FF0000387F803314FF00103A7F806314FE0B7F8062149F20C13C1F6FF739B5C7D2B04D14FF0010387F803313BE097F80331002B22D0B7F8062149F20C13C1F68E
:40108000FF739B5C5D2B0CD1B7F804313A464FF07D01D154B7F8043103F10103A7F804311DE0B7F804313A464FF07E01D154B7F8043103F10103A7F8043110E0B7F80421B4
:4010C000B7F8061149F20C13C1F6FF73595C3B469954B7F8043103F10103A7F804314FF0000387F80331B7F8063103F10103A7F80631B7F8062149F22023C1F6FF731B880B
:4011000003F1FF339A42A4DBB7F80431A3F102039AB2B7F8043103F1FF333946CB5C4FEA032399B2B7F80431A3F102033846C35C0B439BB29BB23946084611461A4601F094
:4011400095FC0346002B03D03B46184600F0D8F8FFF732FF07F58477BD4680BD80B584B000AF78600B467B804FF0000002F0E8F84FF00003FB810CE04FF00100FFF718FD58
:4011800002F000F90346002B09D0FB8903F10103FB81FA8942F20F739A42EDD900E000BF02F0F0F80346002B04D04FF0010002F0C7F8A1E07B887868194601F027FC034652
:4011C0007B814FF07E0001F07DFF4FF00003BB8128E0BB897A68D3181B787D2B08D14FF07D0001F06FFF4FF05D0001F06BFF15E0BB897A68D3181B787E2B08D14FF07D0035
:4012000001F060FF4FF05E0001F05CFF06E0BB897A68D3181B78184601F054FFBB8903F10103BB81BA897B889A42D2D37B89DBB27D2B03D07B89DBB27E2B11D14FF07D0026
:4012400001F040FF7B89DBB27D2B04D14FF05D0001F038FF09E04FF05E0001F033FF04E07B89DBB2184601F02DFF7B894FEA13239BB2DBB27D2B06D07B894FEA13239BB248
:40128000DBB27E2B18D14FF07D0001F01BFF7B894FEA13239BB2DBB27D2B04D14FF05D0001F010FF10E04FF07D0001F00BFF4FF05E0001F007FF07E07B894FEA13239BB200
:4012C000DBB2184601F0FEFE4FF07E0001F0FAFE01F0ECFE03467B727B7A03F002034FEA6303002BF4D07B7A03F00103002BEFD04FF0010002F024F807F11007BD4680BD71
:4013000080B5AEB014AF786007F108031846796801F06AFCBB7A03F00103002B14D1694607F118024FF05003084611461A4603F05FFA07F108030FCB01F012FC0346184683
:401340004FF00401FFF70AFF694607F118024FF05003084611461A4603F04AFA07F108030FCB00F00FFA07F16807BD4680BD00BF80B400AF49F20D23C1F6FF734FF00002A7
:401380001A7049F21E23C1F6FF734FF0FF021A7049F22323C1F6FF734FF000021A70BD4680BC704780B5ACB014AF4FF008033B704FF000037B704FF00603BB70694607F139
:4013C00010024FF05003084611461A4603F010FA3B460FCB00F04CFC07F16007BD4680BD80B5ACB014AF4FF006033B704FF000037B704FF00603BB70694607F110024FF036
:401400005003084611461A4603F0F2F93B460FCB00F02EFC07F16007BD4680BD80B5ACB014AF4FF015033B704FF001037B704FF00603BB704FF000033B71694607F11002C4
:401440004FF05003084611461A4603F0D1F93B460FCB00F00DFC07F16007BD4680BD00BF80B5AEB014AF0346FB714FF017033B724FF003037B724FF00603BB72FB793B738C
:401480004FF0EE037B734FF04803BB73694607F118024FF05003084611461A4603F0A8F907F108030FCB00F0E3FB07F16807BD4680BD00BF80B5AEB014AF0346FB714FF00F
:4014C00016033B724FF001037B724FF00603BB72FB793B73694607F118024FF05003084611461A4603F084F907F108030FCB00F0BFFB07F16807BD4680BD00BF80B5AEB017
:4015000014AF0346FB714FF002033B724FF001037B724FF00603BB72FB793B73694607F118024FF05003084611461A4603F060F907F108030FCB00F09BFB07F16807BD460A
:4015400080BD00BF80B5ACB014AF4FF00F033B704FF000037B704FF00603BB70694607F110024FF05003084611461A4603F040F93B460FCB00F07CFB07F16007BD4680BDA2
:4015800080B5B6B014AF78600B46FB7049F20D23C1F6FF731B78032B40F0BE804FF0170387F8833049F21E23C1F6FF731B7887F86C304FF0FF0387F86D304FF0020387F878
:4015C0006E304FF0000387F86F304FF0000387F870304FF0000387F871304FF0000387F872304FF0000387F873304FF0000387F874304FF0000387F875304FF0000387F8D7
:4016000076304FF0000387F877304FF0000387F878304FF0000387F879304FF0000387F87A304FF0000387F87B304FF0020387F87C304FF0EE0387F87D304FF0480387F81E
:401640007E304FF0000387F87F304FF0010387F880304FF0FF0387F881304FF0FF0387F882304FF018033B7397F88320FB78D318DBB27B734FF00603BB734FF00003C7F86D
:4016800084304FF00003C7F8843011E007F16C02D7F88430D3181A7807F10C01D7F88430CB181A71D7F8843003F10103C7F8843097F88320D7F884309A42E7DC97F88330F0
:4016C000C7F8843013E097F88330D7F88420D31A7A68D3181A7807F10C01D7F88430CB181A71D7F8843003F10103C7F884307B7B1A46D7F884309A42E5DC694607F11C0264
:401700004FF05003084611461A4603F071F807F10C030FCB00F0ACFA07F18807BD4680BD80B584B000AF78604FF00003FB604FF00103FB724FF00003FB6019E0FB684FEA09
:40174000C30248F21C13C1F6FF73D318786819464FF0080202F0F0FF0346FB72FB7A002B02D14FF0010308E0FB6803F10103FB60FB68282BE2D94FF00103184607F1100793
:40178000BD4680BD84B090B5B5B012AF07F1980C8CE80F0049F20F23C1F6FF731B78002B0AD097F8982048F64C53C1F6FF731B789A4201D100F0A6FA49F21C23C1F6FF733C
:4017C0001B78002B40D197F89830022B40F0E18197F89D3087F8863097F88630012B40F0D88107F19C03C7F88030D7F8803003F102031846FFF794FF03461A4649F21C23F1
:40180000C1F6FF731A7049F21C23C1F6FF731B78002B40F0BE814FF000033B704FF000037B7049F21823C1F6FF731C68694607F110024FF04103084611461A4602F0D8FFDE
:401840003B460FCBA047A4E197F89830022B40F0AC8097F89D3087F87F3097F87F300E2B40D107F19C03BB67BB6F9B78072B03D0BB6F9B78082B08D149F20D23C1F6FF73D7
:401880004FF000021A70FFF78DFDBB6F9B78022B15D0BB6F9B78032B11D0BB6F9B78042B0DD0BB6F9B78052B09D049F20D23C1F6FF734FF000021A70FFF792FD69E1BB6F5B
:4018C0009B78052B40F0628149F20D23C1F6FF731B78002B40F05A814FF00103BB67FFF79DFD53E197F87F300F2B40F0528149F22323C1F6FF731B78002B00F04A814FF02F
:40190000000387F8873016E097F88730C3F1070397F8872002F1060207F198018A18127907F1880C634403F8342C97F8873003F1010387F8873097F88730072BE4D907F156
:401940005403D3E90023C7E91C2349F21023C1F6FF731B78002B0CD149F21023C1F6FF735A683B6FD21849F21023C1F6FF735A600BE03A6F49F21023C1F6FF735B68D21AF8
:4019800049F21023C1F6FF735A6049F21023C1F6FF735B68184600F077FA49F22323C1F6FF734FF000021A70F3E097F898300F2B33D107F19C03FB66FB6E1B79022B15D0D9
:4019C000FB6E1B79032B11D0FB6E1B79042B0DD0FB6E1B79052B09D049F20D23C1F6FF734FF000021A70FFF7FBFCD2E0FB6E1B79052B40F0CD8049F20D23C1F6FF731B78FD
:401A0000002B40F0C58049F20D23C1F6FF734FF001021A70FFF702FDBAE097F89830152B24D107F19C03BB66BB6E1B78002B13D149F20D23C1F6FF734FF002021A70BB6E7E
:401A40005A7849F21E23C1F6FF731A70BB6E5B781846FFF705FD9CE049F20D23C1F6FF734FF000021A70FFF79DFC92E097F89830172B30D107F19C037B667B6E1B78002B7E
:401A80001FD149F20D23C1F6FF734FF003021A704FF000033B704FF001037B7049F21823C1F6FF731C68694607F110024FF04103084611461A4602F09BFE3B460FCBA04788
:401AC00067E049F20D23C1F6FF734FF000021A70FFF768FC5DE097F89830192B59D107F1AD033B663B6E1B78EE2B52D13B6E03F101031B78482B4CD197F8AF30012B24D1D0
:401B000097F8B530FF2B20D197F8B630FF2B1CD107F1B103FB6597F8B02049F21023C1F6FF731A70FB6D1A6849F21023C1F6FF735A6049F22323C1F6FF734FF001021A704D
:401B40004FF00F00FFF7DAFC23E04FF001033B7007F1010107F1AF024FF05003084611461A4602F045FE49F21823C1F6FF731C68694607F110024FF04103084611461A4687
:401B800002F036FE3B460FCBA04702E000BF00E000BF07F18C07BD46BDE8904004B0704780B483B000AF0346FB71F97948F64C52C1F6FF720B464FEA43035B184FEA4313FC
:401BC000D3184FF0FF021A70F97948F64C52C1F6FF720B464FEA43035B184FEA4313D3184FF0FF025A70F97948F64C52C1F6FF720B464FEA43035B184FEA4313D3184FF081
:401C0000FF029A70F97948F64C52C1F6FF720B464FEA43035B184FEA4313D3184FF0FF021A7107F10C07BD4680BC704780B582B000AF49F20F23C1F6FF734FF000021A7023
:401C40004FF000037B604FF000037B6008E07B68DBB21846FFF7A4FF7B6803F101037B607B68092BF3DD07F10807BD4680BD00BF84B080B500AF07F1080C8CE80F0049F256
:401C80000F23C1F6FF731B780A2B02D100F03AF80CE049F20F23C1F6FF731B7803F10103DAB249F20F23C1F6FF731A7049F20F23C1F6FF731B7803F1FF33DBB21846FFF723
:401CC0006FFF49F20F23C1F6FF731B7803F1FF3148F64C52C1F6FF720B464FEA43035B184FEA4313D318194607F108024FF06003084611461A4602F07BFDBD46BDE880408E
:401D000004B0704780B582B000AF4FF00003FB714FF00103FB712AE0FB7903F1FF30F97948F64C52C1F6FF7203464FEA43031B184FEA4313D01848F64C52C1F6FF720B46E7
:401D40004FEA43035B184FEA4313D31801461A464FF06003084611461A4602F049FDFB791846FFF71DFFFB7903F10103FB71FB79092BD1D949F20F23C1F6FF731B7803F146
:401D8000FF33DAB249F20F23C1F6FF731A7007F10807BD4680BD00BF90B595B014AF49F20F23C1F6FF731B78002B1ED048F64C54C1F6FF74694604F110024FF05003084612
:401DC00011461A4602F014FD94E80F0000F086FE024648F64C53C1F6FF735B7803F103039BB210461946FFF7B9F907F10407BD4690BD00BF80B582B000AF7860786800F095
:401E00005DF807F10807BD4680BD00BF80B500AF00F076F880BD00BF80B500AF00F076F880BD00BF80B500AF00F076F80346184680BD00BF80B582B000AF0346FB71FB79A7
:401E4000184600F03FFA07F10807BD4680BD00BF80B500AF00F058FA80BD00BF80B500AF00F082FA80BD00BF80B582B000AF3B4683E803003B4693E8030000F05DF807F126
:401E80000807BD4680BD00BF80B582B000AF7860786800F093F807F10807BD4680BD00BF80B582B000AF78607B68184600F0D6F8786807F10807BD4680BD00BF80B582B08B
:401EC00000AF786000F0E0FE00F036F900F01EF900F062FA49F24023C1F6FF737A681A6007F10807BD4680BD80B500AF00F0CCFE00F022F900F00AF900F04EFA80BD00BFE1
:401F000080B500AF01F0D6FE80BD00BF80B500AF01F050FF80BD00BF80B500AF00F024F90346002B04D000F083FA4FF0010301E04FF00003184680BD80B584B000AF3B469C
:401F400083E803003B78184600F0BAFC03463B727B78184600F0C8FC03467B72BB78184600F0D6FC0346BB72FB78184600F0E4FC0346FB723B79184600F0F2FC03463B7304
:401F80007B79184600F0FCFC03467B73FB88DBB203F13003DBB2184600F006FD0346BB7307F108034FF0030019464FF0070200F023F907F11007BD4680BD00BF80B584B0B5
:401FC00000AF786007F108031846796800F00AF807F1080393E80300FFF7AEFF07F11007BD4680BD80B586B000AF786039603B683B6107F11003184602F048FB78617B698E
:402000001B68DBB23B727B695B68DBB27B727B699B68DBB2BB727B69DB68DBB2FB727B699B69DBB23B737B691B69DBB203F10103DBB27B737B695B699BB203F26C739BB25F
:40204000FB817B681A4607F1080303CB10605160786807F11807BD4680BD00BF80B586B000AF78604FF003004FF0070100F09AF878617B691B78184600F03CFB03463B73F0
:402080007B6903F101031B78184600F059FB03467B737B6903F102031B78184600F064FB0346BB737B6903F103031B78184600F06FFB0346FB737B6903F104031B78184694
:4020C00000F07AFB03463B747B6903F105031B78184600F081FB03467B747B6903F106031B78184600F08CFB034603F5FA639BB27B827B681A4607F10C0303CB10605160A4
:40210000786807F11807BD4680BD00BF80B582B000AF4FF000033B714FF000037B7107F104034FF0000019464FF0020200F064F807F10807BD4680BD80B582B000AF4FF0AF
:40214000020000F01DF80346FB71FB7903F0E003E02B05D14FF002004FF0800100F038F807F10807BD4680BD80B500AF02F006F80346002B14BF00230123DBB2184680BD86
:4021800080B582B000AF0346FB71FB794FF06800194600F05DFE0346184607F10807BD4680BD00BF80B582B000AF02460B46FA71BB71FA79BB794FF0680011461A4600F0A7
:4021C00065FE0346184607F10807BD4680BD00BF80B582B000AF02460B46FA71BB71FA79BB794FF0680011461A4600F08FFD07F10807BD4680BD00BF80B582B000AF396053
:4022000013460246FA71BB71FA79BB794FF0680011463A6800F094FD07F10807BD4680BD80B500AF01F0BCFF80BD00BF90B583B000AF00F031F90346FB7149F23023C1F690
:40224000FF731B781946F87949F23023C1F6FF731A78FB79B3FBF2F402FB04F29B1ADBB2C21A49F23023C1F6FF731B7892FBF3F303F1010303FB01F148F68903C8F688036F
:4022800083FB01235B184FEA63124FEAE173D21A13464FEA03139B1A4FEA8303CA1A1346BB71BB79184600F01FFB034603F07F03DBB24FF00A001946FFF78AFF07F10C0744
:4022C000BD4690BD80B584B000AF0346FB7149F23023C1F6FF73FA791A704FF00000FFF74FFF0346FB73FB7B43F00203FB73FB7B4FF000001946FFF76BFFFFF797FF07F1BF
:402300001007BD4680BD00BF80B582B000AF4FF00000FFF735FF0346FB71FB7943F00403FB71FB794FF000001946FFF751FF07F10807BD4680BD00BF80B582B000AF4FF086
:402340000100FFF71DFF0346FB71FB7923F01003FB71FB794FF001001946FFF739FF07F10807BD4680BD00BF80B582B000AF4FF00000FFF705FF0346FB71FB7923F00403B6
:40238000FB71FB794FF000001946FFF721FF07F10807BD4680BD00BF80B582B000AF4FF00F00FFF7EDFE0346FB71FB7943F03803FB71FB794FF00F001946FFF709FF07F124
:4023C0000807BD4680BD00BF80B582B000AF4FF00003FB714FF00100FFF7D2FE0346BB71BB7903F01003002B07D0BB7923F01003BB71FB7943F00103FB71BB7903F0080385
:40240000002B09D0BB7923F00803BB71FFF70EFFFB7943F00203FB71BB794FF001001946FFF7D6FEFB79184607F10807BD4680BD80B582B000AFFFF7C7FF0346FB71FB794E
:4024400003F00103002B07D049F24023C1F6FF731B684FF000009847FB7903F00203002B07D049F24023C1F6FF731B684FF00100984707F10807BD4680BD00BF80B500AF3A
:402480004FF00300FFF77CFE0346184600F032F90346184680BD00BF80B500AF4FF00400FFF76EFE0346184600F04AF90346184680BD00BF80B500AF4FF00500FFF760FE83
:4024C0000346184600F050F90346184680BD00BF80B500AF4FF00600FFF752FE0346184600F056F90346184680BD00BF80B500AF4FF00700FFF744FE0346184600F05CF913
:402500000346184680BD00BF80B500AF4FF00800FFF736FE0346184600F05EF90346184680BD00BF80B500AF4FF00900FFF728FE0346184600F064F9034603F5FA639BB2EB
:40254000184680BD80B582B000AF0346FB71FB793C2B02D94FF03C03FB71FB79184600F0AFF903464FF003001946FFF731FE07F10807BD4680BD00BF80B582B000AF034677
:40258000FB71FB793C2B02D94FF03C03FB71FB79184600F0A9F903464FF004001946FFF717FE07F10807BD4680BD00BF80B582B000AF0346FB71FB79182B02D94FF0000310
:4025C000FB71FB79184600F0A3F903464FF005001946FFF7FDFD07F10807BD4680BD00BF80B582B000AF0346FB71FB791F2B02D94FF01F03FB71FB79184600F09DF903465D
:402600004FF006001946FFF7E3FD07F10807BD4680BD00BF80B582B000AF0346FB71FB79072B02D94FF00703FB71FB79184600F097F903464FF007001946FFF7C9FD07F125
:402640000807BD4680BD00BF80B582B000AF0346FB71FB790C2B02D94FF00C03FB71FB79184600F08DF903464FF008001946FFF7AFFD07F10807BD4680BD00BF80B582B0FB
:4026800000AF0346FB80FB88A3F5FA63FB80FB88DBB2184600F088F903464FF009001946FFF796FD07F10807BD4680BD80B483B000AF13460246FA710A46BA717B71FA7919
:4026C000BB791340DBB24FEA1313DBB21A464FEA8202D3184FEA4303DAB2F9797B790B40DBB2D318DBB2184607F10C07BD4680BC704700BF80B582B000AF0346FB71FB79B4
:402700004FEAD313DBB2012B0BD1FB79032B08D1FB7903F07F03DBB24FF003001946FFF757FDFB7918464FF070014FF00F02FFF7BDFF0346184607F10807BD4680BD00BFD8
:4027400080B582B000AF0346FB71FB7918464FF070014FF00F02FFF7A9FF0346184607F10807BD4680BD00BF80B582B000AF0346FB71FB7918464FF030014FF00F02FFF71E
:4027800095FF0346184607F10807BD4680BD00BF80B582B000AF0346FB71FB7918464FF030014FF00F02FFF781FF0346184607F10807BD4680BD00BF80B483B000AF0346F9
:4027C000FB71FB7903F00303DBB2184607F10C07BD4680BC704700BF80B582B000AF0346FB71FB7918464FF010014FF00F02FFF75DFF0346184607F10807BD4680BD00BF19
:4028000080B582B000AF0346FB71FB7918464FF0F0014FF00F02FFF749FF0346184607F10807BD4680BD00BF90B482B000AF13460246FA710A46BA717B71FA794CF6CD4333
:40284000CCF6CC43A3FB02134FEAD3010B464FEA83035B184FEA4303D31ADAB27B791340DBB2D8B2FC79FA794CF6CD43CCF6CC43A3FB02134FEAD3010B464FEA83035B18A0
:402880004FEA4303D31ADBB2E21A46F26763C6F2666383FB02134FEAA3014FEAE273CB1A4FEA0313DAB2BB791340DBB202461343DBB2DBB2184607F10807BD4690BC7047AB
:4028C00080B582B000AF0346FB71FB7918464FF070014FF00F02FFF7A7FF0346184607F10807BD4680BD00BF80B582B000AF0346FB71FB7918464FF070014FF00F02FFF75F
:4029000093FF0346184607F10807BD4680BD00BF80B582B000AF0346FB71FB7918464FF030014FF00F02FFF77FFF0346184607F10807BD4680BD00BF80B582B000AF03467B
:40294000FB71FB7918464FF030014FF00F02FFF76BFF0346184607F10807BD4680BD00BF80B483B000AF0346FB71FB7903F00303DBB2184607F10C07BD4680BC704700BF69
:4029800080B582B000AF0346FB71FB7918464FF010014FF00F02FFF747FF0346184607F10807BD4680BD00BF80B582B000AF0346FB71FB7918464FF0F0014FF00F02FFF7DE
:4029C00033FF0346184607F10807BD4680BD00BF80B483B000AF02460B46FA807B71FB884FEA13239AB2F9887B794B40D9B24EF2A833C0F2000333F8113053409BB21846A0
:402A000007F10C07BD4680BC704700BF80B584B000AF78600B467B804FF00003FB814FF6FF73FB814FF000037B734FF000037B730EE07B7B7A68D3181B78FA8910461946CD
:402A4000FFF7C6FF0346FB817B7B03F101037B737B7B9BB27A889A42EBD8FB896FEA03039BB2184607F11007BD4680BD80B584B000AF786013460A467A803B804FF00003A9
:402A8000FB814FF6FF73FB814FF000037B734FF000037B730EE07B7B7A68D3181B78FA8910461946FFF794FF0346FB817B7B03F101037B737B7B9BB27A889A42EBD8FB89F9
:402AC0006FEA03039BB23A889A4214BF00230123DBB2184607F11007BD4680BD84B080B483B000AF07F1100C8CE80F003A7C48F69C33C1F6FF731A707A7C48F69C33C1F627
:402B0000FF735A70BA7C48F69C33C1F6FF739A704FF000037B604FF000037B6010E07B6803F103027B6807F11001CB18197948F69C33C1F6FF7399547B6803F101037B60A3
:402B40007B7C1A467B689A42E9DC48F69C33C1F6FF73184607F10C07BD4680BC04B0704784B080B400AF07F1040C8CE80F003A7948F69833C1F6FF731A7048F69833C1F660
:402B8000FF734FF000025A70BA7948F69833C1F6FF739A7048F69833C1F6FF739B7843F00103DAB248F69833C1F6FF739A7048F69833C1F6FF739B7823F00803DAB248F6B8
:402BC0009833C1F6FF739A7048F69833C1F6FF734FF00002DA7048F69833C1F6FF731846BD4680BC04B0704780B59CB000AF786039603B681B783B733B685B787B733B6854
:402C00009B78BB737B7B87F86F30BB7B03F00103002B05D097F86F3003F1010387F86F304FF0000387F86E304FF0000387F86E3013E097F86E3097F86E2002F1030239683A
:402C40008A18127807F17001CB1803F8602C97F86E3003F1010387F86E3097F86E2097F86F309A42E5D37B68194607F10C024FF06003084611461A4601F0BAFD786807F1C5
:402C80007007BD4680BD00BF80B500AF00F05AFC80BD00BF80B584B000AF396013460246FA71BB7101F018FA4FF00003FB604FF00003FB600EE0FB683A68D3181A7849F2A7
:402CC0002423C1F6FF73F9685B181A70FB6803F10103FB60BA79FB689A42ECDCFA79BB79104649F22421C1F6FF711A464FF0000301F076F800BF01F0CFF9034603F00203B8
:402D0000002BF8D007F11007BD4680BD80B584B000AF13460246FA710A46BA717B71BB793B737B797B73FA7907F10C03104619464FF00202FFF7AEFF07F11007BD4680BD9E
:402D40002DE9F04387B000AF3A600246FA710A46BA717B716B461E467B7903F1010101F1FF333B61084602464FF000034FEA52704FEAC30940EA09094FEAC2080846024604
:402D80004FF000034FEA52704FEAC30505434FEAC2040B4603F107034FEAD3034FEAC303ADEB030D6B4603F10003FB60FB68BA791A704FF000037B614FF000037B610CE03E
:402DC0007B6903F101037A6939688A181178FA68D1547B6903F101037B617A797B699A42EEDCFA687B7903F10103DBB2F979084611461A46FFF74EFFB54607F11C07BD46DE
:402E0000BDE8F08380B582B000AF02460B46FA71BB7101F061F9FA79BB79104649F23421C1F6FF711A464FF0000301F085F800BF01F032F9034603F00103002BF8D049F2DC
:402E40003423C1F6FF73184607F10807BD4680BD80B584B000AF02460B46FA71BB71FA7907F10603104619464FF00102FFF712FFFB7918464FF00101FFF7C4FFF860FB68EC
:402E80001B78184607F11007BD4680BD80B582B000AF13460246FA710A46BA717B71FA7907F10603104619464FF00102FFF7F2FEFA797B7910461946FFF7A4FF034618469C
:402EC00007F10807BD4680BD80B500AF48F69C43C1F6FF731B78002B08D100F00BF848F69C43C1F6FF734FF001021A7000F02AF880BD00BF80B400AF46F28E43C4F2000312
:402F00004FF072021A7046F28D43C4F200034FF020021A7046F22043C4F200034FF007021A7046F23043C4F200034FF048021A7046F28C43C4F200034FF000021A70BD467D
:402F400080BC704780B582B000AFFDF7F7FD0346FB7146F29E43C4F2000346F29E42C4F200021278D2B242F02002D2B21A7046F29D43C4F2000346F29D42C4F2000212786F
:402F8000D2B242F01002D2B21A7046F29C43C4F2000346F29C42C4F200021278D2B242F01002D2B21A7001F0AFFAFB791846FDF7C9FD07F10807BD4680BD00BF80B582B0AA
:402FC00000AFFDF7BBFD0346FB7146F29E43C4F2000346F29E42C4F200021278D2B222F02002D2B21A7001F0B1FA46F29D43C4F2000346F29D42C4F200021278D2B222F073
:403000001002D2B21A7046F29C43C4F2000346F29C42C4F200021278D2B222F01002D2B21A70FB791846FDF78DFD07F10807BD4680BD00BF80B483B000AF46F24D43C4F2A8
:4030400000031B78FB71FB79184607F10C07BD4680BC704780B582B000AFFDF76FFD0346FB7146F29D43C4F2000346F29D42C4F200021278D2B242F00102D2B21A7046F227
:403080009D43C4F2000346F29D42C4F200021278D2B222F00102D2B21A70FB791846FDF751FD07F10807BD4680BD00BF80B400AF46F26C43C4F200031B78DBB21846BD4659
:4030C00080BC704780B483B000AF0346FB7100BF46F26C43C4F200031B78DBB203F00403002BF5D146F24343C4F20003FA791A7007F10C07BD4680BC704700BF80B582B00D
:4031000000AFFDF71BFD0346FB7146F29343C4F2000346F29342C4F200021278D2B242F00102D2B21A7046F29343C4F2000346F29342C4F200021278D2B222F00102D2B20F
:403140001A70FB791846FDF7FDFC07F10807BD4680BD00BF80B400AFBD4680BC704700BF80B400AFBD4680BC704700BF80B500AF46F29D43C4F200031B78DBB203F01003F5
:40318000002B07D048F6A043C1F6FF734FF001021A7006E048F6A043C1F6FF734FF000021A70FFF70BFFFFF7D5FF80BD80B500AFFFF7D6FFFFF74EFFFFF7A0FF48F6A0434D
:4031C000C1F6FF731B78002B01D0FFF7BBFE80BD80B582B000AF786000F042F8786800F00BF84FF0070000F01BF800F02DF807F10807BD4680BD00BF80B485B000AF7860EC
:403200004EF60853CEF200031B68FB60FB6803F140037A681A6007F11407BD4680BC704780B483B000AF0346FB714FF46443CEF20003FA794FEA4212D2B21A7007F10C07BE
:40324000BD4680BC704700BF80B400AF4FF46143CEF200034FF001021A60BD4680BC704780B400AF4EF28013CEF200034FF001021A60BD4680BC704780B400AF4EF2802369
:40328000CEF200034FF001021A60BD4680BC704780B400AF45F22113C4F200031B78DBB203F008034FEAD303DBB21846BD4680BC704700BF80B400AF44F28253C4F200031E
:4032C0001B78DBB203F008034FEAD303DBB21846BD4680BC704700BF80B485B000AF0346FB7145F22013C4F200031B78DBB223F00403FB7345F22013C4F20003FA794FEA9A
:403300008202D2B202F00402D1B2FA7B0A43D2B21A7007F11407BD4680BC704780B400AF45F22113C4F200031B78DBB203F004034FEA9303DBB21846BD4680BC704700BFA1
:4033400080B485B000AF0346FB7145F22013C4F200031B78DBB223F04003FB7345F22013C4F20003FA794FEA8212D2B202F04002D1B2FA7B0A43D2B21A7007F11407BD46F5
:4033800080BC704780B400AF45F22113C4F200031B78DBB203F020034FEA5313DBB21846BD4680BC704700BF80B582B000AF786000F042F8786800F00BF84FF0070000F07D
:4033C0001BF800F02DF807F10807BD4680BD00BF80B485B000AF78604EF60853CEF200031B68FB60FB6803F158037A681A6007F11407BD4680BC704780B483B000AF0346F9
:40340000FB714EF20643CEF20003FA794FEA4212D2B21A7007F10C07BD4680BC704700BF80B400AF4FF46143CEF200034FF040021A60BD4680BC704780B400AF4EF28013D2
:40344000CEF200034FF040021A60BD4680BC704780B400AF4FF46243CEF200034FF040021A60BD4680BC704780B500AF44F6D613C4F200034FF002021A7044F6C813C4F2C1
:4034800000034FF081021A7044F6DB13C4F200034FF00F021A7044F6DC13C4F200034FF000021A704EF28013CEF200034FF400421A604FF00F004FF00701FDF7BDFB4FF040
:4034C0000F0043F2B961C0F20001FDF785FB49F24423C1F6FF734FF010021A7000F014FE00F02CFE00F0F8FD80BD00BF80B582B000AFFDF723FB0346FB7144F2A533C4F203
:40350000000344F2A532C4F200021278D2B242F00402D2B21A7044F2B533C4F2000344F2B532C4F200021278D2B242F00402D2B21A70FB791846FDF705FB07F10807BD469F
:4035400080BD00BF80B500AF48F6A443C1F6FF731B78002B08D1FFF787FF48F6A443C1F6FF734FF001021A70FFF7C0FF4FF46143CEF200034FF400421A6080BD80B582B0EE
:4035800000AF4EF28013CEF200034FF400421A6044F6D613C4F2000344F6D612C4F200021278D2B222F01002D2B21A7044F6D713C4F200031B7844F6DB13C4F200031B78ED
:4035C000DAB248F26423C1F6FF73DA7044F6DC13C4F200031B78DAB248F26423C1F6FF731A7144F6D613C4F2000344F6D612C4F200021278D2B222F00202D2B21A704FF06E
:403600000200FDF7D5FA44F6D613C4F2000344F6D612C4F200021278D2B242F00202D2B21A7044F6DB13C4F2000348F26422C1F6FF72D2781A7044F6DC13C4F2000348F204
:403640006422C1F6FF7212791A70FDF777FA0346FB7144F2A533C4F2000344F2A532C4F200021278D2B222F00402D2B21A7044F2B533C4F2000344F2B532C4F20002127877
:40368000D2B222F00402D2B21A70FB791846FDF759FA4EF28023CEF200034FF400421A6049F24423C1F6FF734FF010021A7007F10807BD4680BD00BF80B582B000AF44F6A6
:4036C000D713C4F200031B78FB7149F24423C1F6FF731B78DBB203F04003DBB2002B00F0A082FB7903F00103002B00F0638249F24423C1F6FF731B78DBB2A3F14503052BDB
:4037000000F2538201A252F823F000BF253700001B390000AB3B0000AB3B000025370000C33A0000FB7923F02003FB71FB7903F00A03DBB2082B40F0858049F24423C1F656
:40374000FF731B78DBB2452B6DD149F25823C1F6FF731B78DBB2002B21D044F6D813C4F2000349F24822C1F6FF7212681278D2B21A7044F6D713C4F200034FF004021A7085
:4037800049F25023C1F6FF734FF001021A7049F24423C1F6FF734FF046021A700AE249F24C23C1F6FF731B78DBB203F00203002B1CD049F24E23C1F6FF731B78DBB243F074
:4037C0000A03DAB249F24E23C1F6FF731A7049F24423C1F6FF734FF060021A704EF28013CEF200034FF400421A60E3E144F6D613C4F2000344F6D612C4F200021278D2B2BE
:4038000042F01002D2B21A7044F6D913C4F200034FF010021A7044F6D713C4F200034FF004021A70C6E144F6D713C4F200034FF000021A7049F24423C1F6FF734FF04A022B
:403840001A70B7E1FB7903F00A03DBB20A2B5FD149F24E23C1F6FF731B78DBB263F05F03DAB249F24E23C1F6FF731A7049F24C23C1F6FF731B78DBB203F00203002B2AD01B
:4038800049F24423C1F6FF731B78DBB203F00803002B02D04FF0090201E04FF00A0249F24E23C1F6FF731B78DBB21343DAB249F24E23C1F6FF731A7049F24423C1F6FF73AB
:4038C0004FF060021A704EF28013CEF200034FF400421A606EE144F6D613C4F2000344F6D612C4F200021278D2B242F01002D2B21A7044F6D913C4F200034FF010021A70E9
:4039000044F6D713C4F200034FF004021A7051E14FF00000FDF71CF94CE1FB7903F00203002B7CD149F25023C1F6FF731B78DAB249F25823C1F6FF731B78DBB29A4228D285
:4039400044F6D813C4F2000349F24822C1F6FF72116849F25022C1F6FF721278D2B28A181278D2B21A7044F6D713C4F200034FF004021A7049F25023C1F6FF731B78DBB263
:4039800003F10103DAB249F25023C1F6FF731A7010E149F24C23C1F6FF731B78DBB203F00203002B1CD049F24E23C1F6FF731B78DBB243F00A03DAB249F24E23C1F6FF7399
:4039C0001A7049F24423C1F6FF734FF060021A704EF28013CEF200034FF400421A60E9E000F0C6FB44F6D613C4F2000344F6D612C4F200021278D2B242F01002D2B21A7022
:403A000044F6D913C4F200034FF010021A7044F6D713C4F200034FF004021A70CAE049F24C23C1F6FF731B78DBB203F00203002B1CD049F24E23C1F6FF731B78DBB263F02C
:403A40006503DAB249F24E23C1F6FF731A7049F24423C1F6FF734FF060021A704EF28013CEF200034FF400421A60A3E044F6D613C4F2000344F6D612C4F200021278D2B221
:403A800042F01002D2B21A7044F6D913C4F200034FF010021A7044F6D713C4F200034FF004021A7049F24E23C1F6FF731B78DBB263F06F03DAB249F24E23C1F6FF731A70A9
:403AC00078E049F25423C1F6FF731A6849F24F23C1F6FF731B78DBB2D21844F6D813C4F200031B78DBB2137049F24F23C1F6FF731B78DBB203F10103DAB249F24F23C1F6D2
:403B0000FF731A7049F24F23C1F6FF731B78DAB249F24D23C1F6FF731B78DBB29A4207D244F6D713C4F200034FF010021A7041E049F24C23C1F6FF731B78DBB203F0020327
:403B4000002B1CD049F24E23C1F6FF731B78DBB243F00903DAB249F24E23C1F6FF731A7049F24423C1F6FF734FF060021A704EF28013CEF200034FF400421A601AE044F650
:403B8000D613C4F2000344F6D612C4F200021278D2B242F01002D2B21A7044F6D713C4F200034FF000021A7004E04FF00000FCF7CFFF00BFFB7903F02003002B43D049F2DB
:403BC0004423C1F6FF731B78DBB203F00803002B02D04FF0010201E04FF0020249F24E23C1F6FF731B78DBB21343DAB249F24E23C1F6FF731A7044F6D613C4F2000344F668
:403C0000D612C4F200021278D2B222F01002D2B21A7049F24423C1F6FF734FF010021A7011E049F24423C1F6FF731B78DBB203F01003DBB2002B06D149F24423C1F6FF73C2
:403C40004FF010021A7007F10807BD4680BD00BF80B400AF44F6D613C4F200031B78DAB248F26423C1F6FF739A7044F6C813C4F200031B78DAB248F26423C1F6FF735A70F0
:403C800044F6DB13C4F200031B78DAB248F26423C1F6FF73DA7044F6DC13C4F200031B78DAB248F26423C1F6FF731A71BD4680BC704700BF80B500AF44F2A533C4F20003FA
:403CC0001B78DBB203F00403002B0CBF00230123DBB21A4648F26423C1F6FF731A7044F2A533C4F200031B78DBB203F00403002B01D0FFF743FCFFF7ABFF80BD80B582B0B6
:403D000000AF44F23133C4F200031B78DBB203F00403DBB2002B20D0FCF710FF0346FB7144F23133C4F2000344F23132C4F200021278D2B222F00402D2B21A70FB7918465E
:403D4000FCF700FF44F6D613C4F2000348F26422C1F6FF7292781A7027E044F6C813C4F2000348F26422C1F6FF7252781A7044F6D613C4F2000348F26422C1F6FF7292781A
:403D80001A7044F6DB13C4F2000348F26422C1F6FF72D2781A7044F6DC13C4F2000348F26422C1F6FF7212791A7007F10807BD4680BD00BF80B500AFFFF7A0FF48F26423BD
:403DC000C1F6FF731B78002B08D0FFF78FFB4FF46143CEF200034FF400421A6080BD00BF80B485B000AF39600146F971BA717B714FF00203FB733B68002B00F0968049F2A5
:403E00004423C1F6FF731B78DBB2102B11D144F6D913C4F200031B78DBB203F00803002B03D14FF00003FB7323E04FF00103FB731FE049F24423C1F6FF731B78DBB2602BE0
:403E400017D14FF00003FB734EF28023CEF200034FF400421A6049F24E23C1F6FF731B78DBB223F00803DAB249F24E23C1F6FF731A70FB7B002B58D149F24423C1F6FF7372
:403E80004FF045021A7044F6D813C4F20003FA794FEA4202D2B21A7049F25023C1F6FF734FF000021A7049F25823C1F6FF73BA791A7049F24823C1F6FF733A681A6049F2B2
:403EC0004C23C1F6FF737A791A707B7903F00103002B0ED044F6D913C4F200034FF012021A7044F6D713C4F200034FF004021A7006E044F6D913C4F200034FF001021A70C0
:403F000049F24E23C1F6FF731B78DBB223F00203DAB249F24E23C1F6FF731A704FF46143CEF200034FF400421A60FB7B184607F11407BD4680BC704780B485B000AF396052
:403F40000146F971BA717B714FF00203FB733B68002B00F0998049F24423C1F6FF731B78DBB2102B11D144F6D913C4F200031B78DBB203F00803002B03D14FF00003FB733C
:403F800023E04FF00103FB731FE049F24423C1F6FF731B78DBB2602B17D14FF00003FB734EF28023CEF200034FF400421A6049F24E23C1F6FF731B78DBB223F00803DAB2FC
:403FC00049F24E23C1F6FF731A70FB7B002B5BD149F24423C1F6FF734FF049021A7044F6D813C4F20003FA794FEA4202D2B242F00102D2B21A7049F24F23C1F6FF734FF00C
:4040000000021A7049F24D23C1F6FF73BA791A7049F25423C1F6FF733A681A6049F24C23C1F6FF737A791A707B7903F00103002B0ED044F6D913C4F200034FF012021A706C
:4040400044F6D713C4F200034FF004021A7006E044F6D913C4F200034FF001021A7049F24E23C1F6FF731B78DBB223F00103DAB249F24E23C1F6FF731A704FF46143CEF265
:4040800000034FF400421A60FB7B184607F11407BD4680BC704700BF80B483B000AF49F24E23C1F6FF731B78FB7149F24423C1F6FF731B78DBB203F04003DBB2002B03D0CC
:4040C000FB7943F00403FB71FB79184607F10C07BD4680BC704700BF80B483B000AF49F24E23C1F6FF731B78FB7149F24E23C1F6FF734FF000021A70FB79184607F10C07AD
:40410000BD4680BC704700BF80B400AF49F24F23C1F6FF734FF000021A7049F24E23C1F6FF731B78DBB223F00103DAB249F24E23C1F6FF731A70BD4680BC704780B400AF76
:4041400049F25023C1F6FF734FF000021A7049F24E23C1F6FF731B78DBB223F00203DAB249F24E23C1F6FF731A70BD4680BC704780B400AFBD4680BC704700BF80B400AF34
:4041800045F21113C4F200031B78DBB203F040034FEA9313DBB21846BD4680BC704700BF80B400AF44F28153C4F200031B78DBB203F040034FEA9313DBB21846BD4680BC11
:4041C000704700BF80B500AF4FF49E43C4F200034FF49E42C4F200021278D2B202F00102D2B21A7044F60273C4F2000344F60272C4F200021278D2B222F00302D2B21A709B
:4042000044F60173C4F2000344F60172C4F200021278D2B242F00102D2B21A7044F60B73C4F2000344F60B72C4F200021278D2B222F03002D2B21A7044F60B73C4F20003B0
:4042400044F60B72C4F200021278D2B242F03002D2B21A7044F60B73C4F2000344F60B72C4F200021278D2B222F00F02D2B21A7044F60B73C4F2000344F60B72C4F2000250
:404280001278D2B242F00F02D2B21A7042F6E06000F0D6F842F6E06000F098F84FF0080000F078F880BD00BF80B400AF44F2A333C4F2000344F2A332C4F200021278D2B255
:4042C00042F00102D2B21A7044F2B333C4F2000344F2B332C4F200021278D2B242F00102D2B21A704FF49E43C4F200034FF49E42C4F200021278D2B242F00102D2B21A7079
:40430000BD4680BC704700BF80B500AF48F6A543C1F6FF731B78002B08D1FFF753FF48F6A543C1F6FF734FF001021A70FFF7BCFF80BD00BF80B400AF4FF49E43C4F200032E
:404340004FF49E42C4F200021278D2B222F00102D2B21A7044F2A333C4F2000344F2A332C4F200021278D2B222F00102D2B21A7044F2B333C4F2000344F2B332C4F20002D0
:404380001278D2B222F00102D2B21A70BD4680BC704700BF80B483B000AF0346FB7144F60373C4F20003FA791A7007F10C07BD4680BC704780B400AF44F60373C4F2000399
:4043C0001B78DBB21846BD4680BC704780B582B000AF0346FB8044F2A333C4F200031B78DBB203F00103002B03D04FF00000FCF7AFFB44F2A333C4F2000344F2A332C4F233
:4044000000021278D2B242F00102D2B21A7044F60673C4F20003FA881A8044F2A333C4F2000344F2A332C4F200021278D2B222F00102D2B21A7007F10807BD4680BD00BFE2
:4044400080B483B000AF0346FB8044F60473C4F20003FA881A8007F10C07BD4680BC704780B582B000AF786000F042F8786800F00BF84FF0070000F01BF800F02DF807F19A
:404480000807BD4680BD00BF80B485B000AF78604EF60853CEF200031B68FB60FB6803F184037A681A6007F11407BD4680BC704780B483B000AF0346FB714EF21143CEF25C
:4044C0000003FA794FEA4212D2B21A7007F10C07BD4680BC704700BF80B400AF4FF46143CEF200034FF400321A60BD4680BC704780B400AF4EF28013CEF200034FF400328B
:404500001A60BD4680BC704780B400AF44F2A233C4F2000344F2A232C4F200021278D2B242F00102D2B21A7044F2B233C4F2000344F2B232C4F200021278D2B242F0010268
:40454000D2B21A70BD4680BC704700BF80B400AF44F2A233C4F2000344F2A232C4F200021278D2B222F00102D2B21A7044F2B233C4F2000344F2B232C4F200021278D2B22A
:4045800022F00102D2B21A70BD4680BC704700BF2DE9F041274C84B025680746D5F84841002C41D066681F2E1CDD234810B94FF0FF301FE04FF4C870039102920193AFF33A
:4045C000008003990446029A019B0028EFD0D5F84861002060602660C5F84841C4F88801C4F88C01656847B9A81C013544F820106560002004B0BDE8F081012000FA05F094
:40460000D4F8886104EB85080643022FC8F88820C4F88861C8F80831E6D1D4F88C3143EA0002C4F88C21DFE705F5A674C5F84841B8E700BFACE5000000000000114B124A2A
:4046400070B5981A831018D0591E02EB83040D4654F8042D01F00106904775B126B154F8040D8047013D08D054F8043D9847013D54F8041D8847013DF6D1BDE870400AF0ED
:404680005BB900BF48E9000044E9000048F29863C1F6FF7319687C3100F000B8012200F0C1BA00BFF8B5204F204C381B871017D07A1E2368012502F001069847AF420FD0FE
:4046C0002EB154F8041F02258847AF4208D0606880470235A268261D90470834AF42F6D1134F144C0AF01CF93B1B9F1018D07D1E216805F0010601258847AF4211D02EB14B
:4047000054F8040F02258047AF420BD0626890470235A368261D98470834AF42F6D1F8BDF8BDF8BDF8BD00BF2CE900002CE9000038E900002CE90000032AF0B431D941EA6E
:4047400000039C072ED106680F68151F031D0C1DBE42C5F3800C24D1032D2A461FD9BCF1000F08D01E6825682146184604340433AE4211D015E0214618461C680B68051DE2
:404780000E1D9C420DD1314628462E680D68043A031D0C1DAE4204D1043A032AEBD8214618461AB303780C78A3420AD1551E0022EB0714D510F8013F11F8014F0122A3423E
:4047C0000DD0181B10E010F8013F11F8014FA342F7D110F8013F11F8014FA342F1D1AA4202F10202EFD10020F0BC70471046FBE70F2A2DE9F00340F2A18041EA00039B0760
:4048000040F09E800C68A2F1100504604B68AC4643608C68BCF10F0F8460CC68C5F30015C46000F1100301F110042BD975B12568ACF1100C1D6065685D60A5689D60E568C2
:404840001034DD601033BCF10F0F1BD9276804F110061F60676803F110055F60A768ACF1200C9F60E768DF6024691C61776806F110046F60B7682033AF60F668BCF10F0F33
:40488000EE60E3D8A2F1100828F00F0302F00F0403F1100C032C00EB0C0301EB0C0851D9211F4FEA9109444608EB890C54F8046BC8EB0C010CF1040C1D46644545F8046B4D
:4048C000C1F3800112D029B154F8041B644545F8041B0BD0274657F8041B2E4646F8041B64686C603C1D351D6445F3D109F1010C4FEA8C0902F0030208EB09014B44D2B145
:404900000D789A18DC4303F8015B1419934204F0010410D02CB111F8014F03F8014B934209D04D781C4604F8015B8D7802315D70631C9342F5D1BDE8F00370470346DEE7C9
:404940000346DDE741462246D9E700BFF0B48407034600F08D80541E002A00F08780E507CEB211D41A4602F8016B13461546920710D0621E002C79D003F8016B14469A0719
:404980001D4607D0013CEDE7034603F8016B9A071D46F7D1032C52D9CEB246EA06270F2C47EA07432DD9A4F1100217460F2FC2F300162B606B60AB60EB6005F1100216D98D
:4049C0003EB1103F136053609360D36010320F2F0DD9203F02F11006136053609360D360136153619361D36120320F2FF1D8A4F1100222F00F0204F00F041032032C1544CF
:404A00001DD9271F3E462A46032E42F8043BC7F380070DD927B1043E032E42F8043B07D9174647F8043B083E53603A1D032EF7D8231F23F00302131D04F00304ED18ACB1BF
:404A4000C9B2EA432C1905F8011BA318A54203F001020BD01AB105F8011BA54206D02B4603F8011B69705D1CA542F8D1F0BC7047054614468EE700BF2DE9F04F85B0044682
:404A800001F0E2FB40F2B1739C42074640F3AD8048F21F53C5F2EB1383FB04056FF4F662A4F26D71A6186FF4C86083FB019C2218B610E017A4F2B27840F26D1909FB086EE3
:404AC00083FB0263C0EBE516C0EB65104FF4C87505FB1646642505FB1045C917D217A1EB6C10D6F10106C2EBE31338BF00260EEB000942F293484FF4A34C7C6004F00304DA
:404B00000196039599443A4600260294C9F24928C0F2010C117A4A2969D0442979D0029D0198002D5CD04400D2F80CA021184EF2B0500B01C0F20000BAF1010F00EB030426
:404B40006BDDA4F10805C15805EB8A052B1BAC42C3F38000494423460ED020B16068231DAB42014408D0AB46181D5B684568C918031D5B452944F7D10AF1FF3E4FEA8E0A1D
:404B8000081D88FB0035C3172D18C3EBA503C3EBC3055369401B1B1A106948BF0733013854F80A40C0EBC000C318A34202DB073BA342FCDAC9189469136A0CFB0144013675
:404BC000E118022E42F81C1FA4D1BB6BFA6901209A42ACBF002301233B6005B0BDE8F08F039B002B18BF01209DE70020F5E75069029B00EB09013BB9039C2CB13B28D4BF04
:404C0000002001200918D6E7019B002BF6D10198F8E7546909EB0401CDE749464FF0000AAEE700BF2DE9F84F81460F46904601F00BFBD9F8002044F20753CCF22E2382461B
:404C400083FB02014FF4A345D0178C18C0EB2443C0F2010505FB1322002A04DA02F5A83606F5C072013B4BF2C531C9F2A21181FB0210D4178518C4EBE5254FF4616606FB3D
:404C8000152248F68900C8F6880042F29344191D80FB0260C9F2492484FB01B4D6178018C6EB601064184FEAE17CC0EB0016CCEBA404A2EB8602C4EBC406BD608D1B48BF04
:404CC0000735002B78603A60BD61C0F2B08048F21F50B04E40F2B274C5F2EB104FF4C87C4FF0640B10E0E21780FB0415C2EBE5120CFB1241D1F1010538BF002556F8252003
:404D0000934211DB01349B1AA207ECD180FB0421E217C2EB61150BFB15410029E4D0012556F825209342EDDA6A00A4F26C709A495519786100202A01FB6138618D5801EB01
:404D4000020BAB4208DB594601263E615B1B51F8045F01369D42F8DD5A1CFA60B8F1000F04D0002038623846BDE8F88F8B4E01F053FA3568002D40F08480C7F82080DAF8DE
:404D800020204BF2C536C9F2A21686FB0205D117AC18C1EBE4234FF4616000FB132148F68902C8F6880282FB0165CE176C18C6EB64123D68C2EB02167C68B868A1EB8601E9
:404DC000691AA21AC31A3B2987E80E007CDD01323C3987E806003B2A6FDD01333C3ABB607A60172B77DDF869BA69411C501C0628FA68C8BF0020F961183BB8613969501C02
:404E0000F860BB605BF8213098420BDDC21A481C0C28FA60386105D1796900234A1C3B617A61FB6101F0FAF93846BDE8F88F48F21F51584840F2B274C5F2EB114FF4C876BA
:404E40004FF0640E0FE0E21781FB04B5C2EBE51206FB1245D5F1010538BF002550F825209B187FF561AF013CA507ECD181FB0425E217C2EB65150EFB1545002DE4D00125E7
:404E8000ECE7DAF80410A14204D02046FFF7F4FD00284AD0DAF80030002B36D0D9F80050DAF81C108D4244DBDAF83840A54240DA01203862DAF83C2063E7002A91DA013B64
:404EC0003C32BB607A608CE7002984DA013A3C3187E806007FE7002BA4DAF869BA69411E501EFA6848BF0620F9611833511EB861F960BB60002995D13B69581E1CD4386176
:404F000082005BF80210F9608CE7D9F80000DAF81C209042CCDADAF83860B042ACBF0020012038620028C5D129E74FF0FF343C6225E700233B6222E77A690B21531E9A07F1
:404F400039617B6115D0DA1748F21F56C5F2EB1686FB03604FF4C871C2EBE01201FB1233D3F1010638BF002606F26D10F8612C22C7E748F21F50C5F2EB1080FB0301DA17C1
:404F8000C2EB6111642000FB11310029DCD04FF4B770EBE710E60000B0E50000A88CFF1F0EB4F0B59CB021AC4FF4017254F8046BADF814200290069000F022F8074648F2A0
:404FC000986000253246C1F6FF7044F6FD76C0F200060E95139502A94FF6FF7523460068039707970A96ADF81650019400F038F81CB0BDE8F04003B0704700BF00207047D8
:4050000020F0030110F00300C0F1000051F8043B00F1040C4FEACC0C6FF000021CBF22FA0CF213434FF0010C4CEA0C2C4CEA0C4CA3EB0C0222EA030212EACC1204BF51F887
:40504000043B0430F4D013F0FF0F1FBF013013F47F4F013013F47F0F18BF0130704700BF2DE9F04F8B46ADF52F7D04461546059301F0E6F8BBF80C3003F4005210B248B945
:40508000DBF8641043F4005621F40057ABF80C60CBF864702A46164616F8013B002707970B97B9460997DFF87CA411937BB3DAF80000C118497801F00801C9B200292DD01E
:4050C000DBF8041014E0DBF80000DAF800200178431C5018427802F00801C8B280B1DBF8042009F10109511ECBF80410CBF800300029E8DC2046594602F00EFF0028E2D071
:405100003246164616F8013B1193002BCFD101F099F809980DF52F7DBDE8F08F252B17D0DBF80410002940F39580DBF8003016F8010C1A788242EAD1DBF804100133481EAE
:40514000CBF80400CBF8003009F101093246D8E7537888460D46721C782B00F21684DFE813F02E041404140414041404140414041404140414041404140414041404140445
:405180001404140414041404140414041404140414041404140414041404140414041404140414041404140414041404960414041404140414049A041404140414041404E7
:4051C0001404350435043504350435043504350435043504350414041404140414041404140414041404140414043F044304140443041404140414041404460414041404AA
:405200004C04140414041404140414041404140414045504140414045E04140414041404140414041404140468046D044304430443046F047504140414047C0414048504DC
:40524000A804A00414041404A404140490001404140455042046594602F05EFE00283FF464AF00F0EFFF099F3FB1BBF80C2002F040010BB2002B3FF44CAF4FF0FF35099565
:4052800047E7A74F0A20089207970B900326DBF80410002940F38B8318F0400F0FD0013E032E00F21981DFE816F0B101940024003F012046594602F02FFE0028D1D1DAF8EA
:4052C0000010DBF8003001E0CBF800301A7801338A18527802F00802D2B2002ADFD0DBF8042009F10109013A002ACBF80420EBDCDFE7681EB0F5AE7F84BF6FF4AE76A81985
:4053000056AF88BF40F25D154FF0000E98BF002023460B9CCC4648F45868CDF818E03E468146DBF800201078A0F12B014D2900F2D381DFE811F01302D1011302D101D10137
:405340000502EE01EE01EE01EE01EE01EE01EE01FC01FC01D101D101D101D101D101D101D101F701F701F701F701F701F701D101D101D101D101D101D101D101D101D101B3
:40538000D101D101D101D101D101D101D101D101B701D101D101D101D101D101D101D101D101F701F701F701F701F701F701D101D101D101D101D101D101D101D101D101E3
:4053C000D101D101D101D101D101D101D101D101B701002D08BF4FF0FF3518F0010640F06A8318F0100F40F04884059F059A3968101D4F1C4E19F51BEB0706910590DBF8CB
:4054000000201ED51378DAF80010DDF81880C818457805F00803D9B2002940F08A84DBF80400B846451ECBF8045012F8013B07F8013CDBF80410CBF80020002940F39985DB
:40544000013715781046DAF8002007F1FF38531959787D1C01F00802D3B2002B40F06984DBF80410B8464A1ECBF8042010F8013BB74207F8013CCBF8000000F05A84DBF841
:405480000410002940F3F083DAF8001002460078B8460F187B786F1C03F00801C8B2002840F04784DBF80430A846591ECBF8041012F8010B05F8010CDBF80450CBF80020BE
:4054C000002DBEDC2046594602F026FD002840F03084DBF80020B4E7002D08BF012518F0010640F0598418F0100F00F0CE84DBF804202046AA425946DBF8003080F2F584BC
:405500009B18CBF80030B618AD1A02F005FD0028EDD0002E3FF4A5AEB144089E3246F0E5597B00009C86FF1F6B1EB3F5AE7F84BF6FF4AE702B1856A98CBF40F25D15002331
:40554000002648F4F0670A940491B4460C960E9606960D960DF5AC783446DBF800201078A0F12B014E2900F21781DFE811F0A7011501A701B9011501AD01FD00FD00FD0044
:40558000FD00FD00FD00FD00FD00FD001501150115011501150115011501C001150115011501CC01C70115011501FF011501150115011501EC0115011501150115011501EC
:4055C000E7011501150115011501E2011501150115011501150115011501C001150115011501CC01C70115011501FF011501150115011501EC011501150115011501150177
:40560000E7011501150115011501E201002D08BF4FF0FF3518F0100F00F0A3820026EA07DBF8003016AF0FD41A78B95C00293FF46EADDBF804600133701E01260028CBF8B9
:405640000400CBF8003023DD19785A1C785C002800F00A84DBF804300136013BB5428BE80C00B0463FF458AF002B40F37082531C1278B95C002900F0F783DBF80460CBF8A7
:405680000030701E0028CBF8040008F10106DBDC2046594602F040FC00287FF43DAFDBF80030D1E708F4C061B1F5007F14D128F4007848F4A068102406F8010BDBF80400FD
:4056C000411E0029CBF8041040F333820132CBF80020013D7FF425AE18F4807F0B94E1461C460BD0BE4206D916F8011C18465A4602F0D2FB013EBE423FF409AD18F01005AF
:4057000000F03383F61B069FF319089E99443246F7E44EF21861C0F2000131F9144028F43868C9E70A2CD7DD28F43868C4E74EF2186EC0F2000E3EF91440082CF4DCCBE7BD
:4057400018F4006FB8D014B948F40078082418F4806F00F08E8328F4B068ADE718F0800FBAD028F08008A7E70CEB0601A1B927F4C07708F8010BDBF80400013D411E002913
:40578000CBF8041009F1010940F3BF810132CBF80020002D7FF4E1AE069406980A9C002840F0C4810CF1FF31012940F2FF84731E062B3FD8022E40F2C984032E3AD0043ECA
:4057C00008F1FF3CF2B2C2EB0C06C8EB06006FEA000E65460A9218F8011C0EF0010320465A46CDF80CC00F9302F056FBB542DDF80CC018D00F9941B1013D20461CF8011C11
:405800005A4602F049FBB5420DD015F8011D5A46204602F041FB15F8011D20465A4602F03BFBB542F1D10A9D09F1FF39EA439044C5EB0909FA051BD57B0500F15E8418F85F
:40584000011C08F1FF35652909F1FF390BD0452909D020465A4602F01FFB18F8021CA8F1020509F1FF3920465A4602F015FBA84617F0100240F0458107F4C066B6F5806F2A
:4058800088F8002000F069830E9D002D40F051830022204656A901F097F8FE0702460B4640F10883059F3D6804370597C5E90023099A089E551C0995324622E439067FF5B5
:4058C0006BAF27F0800754E7F9057FF54DAF27F080070134002B3FF44EAF013B01354AE7B9057FF559AF27F420770D9441E7BCF1010F7FF451AF4FF0020C3AE7022E7FF480
:405900004BAF032635E707F4A061B1F5806F03D079057FF541AFACB3B90504D40D99CDF83080641A0E9427F4F06747F4C07700241FE7072E7FF430AF08261AE7062E7FF447
:405940002BAF072615E7BCF1000F40F000822CB907F4E061B1F5E06F00F0C183012E02D0042E7FF419AF0136F6B202E7002E40F0F581002C40F0AD8207F4E061B1F5E06FA6
:4059800000F0338306940A9C0CE70892C218567806F00307012F00F09F82DBF80410B04F0A200326002907970B903FF775AC2046594602F0B1FA00283FF46EAC51E44FF00E
:4059C000FF3500F03FFC0995FFF7A3BB05EB850103EB4103A3F1300573781646FFF7BBBB089248F00108D8E7089204264FE4737848F002081646FFF7AEBB089248F00108DE
:405A0000984F082007970B90032640E4089248F40078944F102007970B90032637E416A81146089200F05AFF48F04008089001262DE4089248F04008002628E40892ACE732
:405A4000737848F004081646FFF785BB844F0020089207970B90032619E473786C2B00F03E8248F001081646FFF775BB18F0100F089246D118F0040F00F04082059D1646E1
:405A800028680435A0F800900595FFF739BB08921646FFF745BB737848F010081646FFF75ABB089248F40878B3E708920226FFF7EEBB0892A4E70021082214A8FEF746FF2C
:405AC00018F01001069140F00182059B1F1DD3F800800597002656AFDBF80020DAF80000117843185A7802F00800C1B211B9002D40F08082069D25B9C8F80050099F0137D3
:405B00000997089E3246FFF7FCBA0A9859460293CDF80CC002F000FA029BDDF80CC000287FF43AAE002D7FF418AD35E627F4807738E6184659460293CDF80CC002F0ECF93D
:405B4000029BDDF80CC000283FF4C3ADC4E52046594602F0E1F900287FF4DEACDBF8002085E5059FDBF800103A68381D561C53199D1B0590E80716AF4ED4A0461C4608460B
:405B80000978751E7B5C002B5FD0DBF8041035464B1ECBF8043010F8011BA64206F8011CCBF8000051D0DBF80430002B28DD05780146785D01363346751E002845D0DBF8B0
:405BC000040035460138CBF8040011F8010B06F8010CDBF80400CBF80010002801DD5E1CCDE7404659460392029602F095F9039A029B002840F06D82DBF800105E1CBEE7D3
:405C000040465946039202F087F9039A002840F06082DBF80000CAE708781546385CA8B1DBF8040035460138CBF8040011F8010B06F8010CDBF80400CBF80010002840F39E
:405C40002682A04601361C4699E74446AE1A3FF45EAA00202870099D013509955CE400BF79780000597B00005946204602F054F900285ED1DBF8000006E4EA07DAF80010CF
:405C8000DBF8003013D41A788818427802F00800C2B2002A7FF440ACDBF804600133701E01260028CBF80400CBF8003029DD18785A1C0B18587800F00803D8B200287FF4F6
:405CC0002BACDBF8047001367B1EB5428BE80C0037463FF421AC002B1FDD531C12788818427802F00800C2B2002A7FF415ACDBF80460CBF80030701E7E1C0028CBF804003C
:405D0000D5DC2046594602F007F900287FF404ACDAF80010DBF80030C9E72046594602F0FBF800287FF4F8ABDAF80010DBF80020D3E7069E0998C6EB0801089E0023451CFB
:405D400088F80030894409953246FFF7DAB9BCF1020F7FF403AE4FF0030C0AE5032E3FF402AE052E3FF4FFAD16E52A463570204639460B9B079DA84718F0200F6ED118F016
:405D8000040F00F0028105990A680B1D059310800998451C0995B5E40021082212A8FEF7D5FD18F01007069740F08E80DDF814804646321DD8F80070059259464FF00008FD
:405DC000A34656AE0C4600F059FA404543D02068636810F8011B5A1E06F80810206008F1010812A862603946009032465846434600F0E8FC411C2ED018BB069B03B93B60DE
:405E00000699C144013D19BB043788466268002A09DD002DD7D125465C46AB46069D002D3FF46CAE6DE65846214602F075F80028EFD020465C468346B8F1000FEED0FFF7FE
:405E400010BA0230E2D00699C144013D0029DBD04FF00008DAE7A346FFF703BA059D29682A1D0592086093E7002E7FF455ABFFF74EB928F46078B9F1000F02D009F1FF39D8
:405E800001350698411C069118E4059F012239682046CDF800B02B4602F05CF83A1D00283FF4DFA9099D8144013509950592089EFFF726B9BD0740F1848005980168061D77
:405EC0000596C1E90023F3E4002776E70DF1440800E606940A9C29E648F001085DE5B37848F002080236FFF736B9511B58197619CBF80410CBF80000FFF70EBB18F0010F76
:405F00000ED118F0020F0BD0059D4E462868F3170435C0F8009043600595089EFFF7F0B8059F089E39680437C1F800900597FFF7E7B80C9B2046591C0A2301F09DFC421B86
:405F40000C9D0DF2AB26B54224BF0DF2AA250C950C98B04900F010FD9AE40698DDF834E0CEEB00014A4200293FF492ACCDF83080E6E72046594601F0CFFF00287FF4D9AEB8
:405F8000DBF800200137FFF75CBA18F001027FF465AF18F0020F3FF461AF079D47F6593EC0F2000E7545204639460B9B00F02E8101F0FAFC059A1368151D059583E8030065
:405FC000E6E6059F3E1D059F3D680390029100F03FFC039A029B002800F087801046194607F056FE0596286062E427F4F0670126FFF7BFBB00F042F9B0423FF432A9DBF873
:406000000030DBF8042013F8010B511EB855CBF80030013614ABCBF804102046009341463A46334600F0CEFB411C3FF41AA948BBC8F8000000F00EF9002834D0002E3FF41A
:4060400059AD751EBE1920462F4616F8011D5A4605F0010501F020FF002F3FF44BAD0DB1013F06E016F8011D5A46204601F014FF023F204616F8011D5A4601F00DFF002FEB
:40608000F0D137E5023014D0D8F80000D2E7204659460392029301F03FFF039A029BC8B9DBF80010CDE5B144069E013D1EBB08F10408DBF80420002A3FF70EAD20465946EA
:4060C00001F02AFF00283FF407AD002E7FF4C9A810E54446B2427FF4B9ADFFF7C2B827F4F0674FF0010CFFF744BB00F041FC05962860FFF7DDBB0646DBE7049FB8457FF6F5
:4061000006A8464616F8011DC8EB070320465A46DD4301F0C1FEBE4205F001053EF4F7AF1DB116F8011D204608E016F8011D5A46204601F0B1FE16F8011D20465A4601F056
:40614000ABFE049DAE42F0D1FEF7E1BF049FB8457EF6DDAF049F4646C8EB070516F8011DEB4320465A4603F0010501F095FEBE423EF4CDAF4DB116F8011D20465A4601F055
:406180008BFE049FBE423EF4C2AF16F8011D5A46204601F081FE16F8011D20465A4601F07BFE049DAE42F0D1FEF7B1BF049DA8457EF6ADAFC8EB05004646C74316F8011D43
:4061C00020465A4601F068FE07F00105049FBE423EF49DAF4DB116F8011D20465A4601F05BFE049FBE423EF492AF16F8011D5A46204601F051FE16F8011D20465A4601F0FF
:406200004BFE049DAE42F0D1FEF781BF01F04CFDD0E600BF3CE60000704700BF704700BF024B13B1024800F005B87047000000003D4600000146002002460346FEF7A8B941
:40624000704700BF704700BF48F2A060C1F6FF70704700BFFF2807D8044B19680818427802F00803D8B27047002070479C86FF1F48F21870C1F6FF70704700BF48F2387314
:40628000C1F6FF731868704748F2E060C1F6FF70704700BF2DE9F04F01F10B05162D83B0064627D935F0070527D4A94225D8304600F0CAFAB5F5FC7F23D2B94F4FEAD50CD5
:4062C00007EBCC02D468944200F0D8816368E26823F0030163185868A16840F001005860CA609160304600F0B1FA0834204603B0BDE8F08F1025A942D9D90C2434600024CB
:40630000F4E75FEA552C00F08980BCF1040F00F253814FEA951707F1380E4FEA4E01A04F07EB8101CC68A14205D10CE0002A7ADAE468A14207D0636823F00300421B0F2A57
:40634000F4DD0EF1FF3E0EF1010C954B3C6903F1080E744500F07081616821F003014A1B0F2A00F35681002AC3F814E0C3F810E067DAB1F5007F80F02D81C90888104FF0E5
:40638000010808FA00F803EBC1015A68886848EA0202E160A0605A608C60C46001204FEAAC0400FA04F0904255D8024206D12CF0030C400002420CF1040CFAD007EBCC09D8
:4063C0004C46E046E3689C4207D137E1002A80F25F81DB689C4200F03181596821F003014A1B0F2AF2DD1C46D86854F808CF591945F0010842F00105CCF80C00C0F808C04D
:40640000C3F8048079613961C1F80CE0C1F808E04D608A50304600F019FA67E74FEAD50E4FEA4E017BE722185068E368A16840F001005060CB609960304600F007FA083421
:4064400054E762185368304643F00101516000F0FDF908344AE7BC68606820F00309A94504D3C5EB09030F2B00F38D804D4A4E4B11681868013104EB090B05EB000300F0F9
:40648000518103F580500F3020F47F6121F00F0C614630468DE8041000F00EFA9DE80410B0F1FF3F804600F04681834500F20881DFF800A1C345DAF800306344CAF80030F2
:4064C00000F03E811268013200F04B81CBEB080B5B44CAF8003018F0070100F00481C1F10800C1F58053804403F1080208EB0C010805030DC3EB020B3046594600F0DCF9EE
:40650000431C00F03A81C8EB00020BEB020141F00100DAF80030BC425B44C7F80880CAF80030C8F8040015D0B9F10F0F40F2E9806168A9F10C0222F0070201F0010C0520DE
:40654000A11842EA0C0E0F2AC4F804E04860886000F20B81154ABC681068834288BF1360134A11688B4288BF1360636823F00300A842C5EB000301D30F2B04DC304600F08C
:4065800065F90024B2E6621943F0010145F00105656030465160BA6000F058F90834A5E63C87FF1F488BFF1FB48CFF1FB08CFF1FAC8CFF1FB88CFF1FBCF1140F77D9BCF1B9
:4065C000540F00F286804FEA153404F16E0E4FEA4E01A4E6480A04286ED9142800F2A58000F15B02500007EB80008368DFF8C88183427BD05A6822F00302914202D29B6875
:406600009842F7D1D9687A68E160A360DC608C60C4E6611942F0010045F001056560596119614860C1F80CE0C1F808E08A50304600F00CF9083459E65A68AFE608F1010897
:40664000083418F0030F7FF4BDAE49461CF0030FA1F108040CF1FF3C00F0A2800968A142F4D07C684000A0423FF6F5AE00283FF4F2AE044200F09980C4469FE604F1080382
:406680006469A34208BF0CF1020C3FF45EAE1DE6591848681C4654F8082FDB6840F001004860D3609A60304600F0D0F81EE60CF15B0E4FEA4E0132E68A093832500092E7C7
:4066C000BC423FF4F5AE3C4CA468626822F003004EE7BCF5AA7F1AD84FEAD53202F1770E4FEA4E011BE64FF48052FFE69110012000FA01F0D8F8042019460243C8F80420EE
:4067000082E70122C8F804204446002030E740F254539C4521D84FEA954000F17C0E4FEA4E01FCE503F1100CB2E6542829D80A0B6E32500057E7BC68616821F0030017E71C
:406740004FEA0B50010D00297FF4BCAEB8680CEB090141F001044460FCE6FC214FF07E0EDDE51648C0F80080B5E604F10801144C304604F099FC2368ECE601204FF0000B94
:40678000C7E6B0F5AA7F03D8CA0B773250002AE740F2545398420CD88A0C7C32500022E77C6824EA00047C605CE7400008F104085FE7FC207E2216E73C87FF1F488BFF1F45
:4067C000B88CFF1F2DE9F04383B01F461446054688460A9E104B9AB1D3F80090FFF748FD41468DE84100224628463B46C847431C03D100218A2231602A6003B0BDE8F08376
:406800001F68FFF735FD21468DE84100034A28460123B847EBE700BF4C8BFF1FB0E7000082B049B15AB163B113780B601078003018BF012002B0704701A9002AF3D1104649
:40684000F8E76FF00100F5E7704700BF704700BF0B4661B1B1F1004F09D04FF6FF72A3F58011C7F6DF72914205D8042070470028F3D10220704703F1FF4101F5E0019142C9
:40688000F3D94FF6FF72C0F20F02934201D80320704703F100419142F9D90022C7F6F072934204D013F5801F01D000207047D0F1010038BF0020704738B5074C00230546BA
:4068C0000846236007F020FD431C00D038BD21680029FBD0296038BD5C92FF1FF0B40D785E2D3FD000240131264600235A1CC4540233B3F5807F8454F8D185B186F0010424
:4069000044554A1C12F8013C2D2B0CD05D2B08D013B90846F0BC70471D461146F0E70139F7E71146F5E74E785D2EF5D0B542F3DCEF4343190135BF190231AE4203F8014F3E
:4069400007F001070CDD27B10135AE4203F8014F06DD023503F8014FAE4203F8014FF8DC0232CFE701244D7826460231BDE700BF0020C7F6C07070470EB4F0B59CB021AC58
:4069800054F8042B48F298636FF00045C1F6FF73064602A90495079518684FF4027723464FF6FF75ADF8147002960696ADF81650019401F00DFB029900220A701CB0BDE832
:4069C000F04003B0704700BF2DE9F04F9DB00491824600210020049BCDE906010F9217931A46174612F8013B2D2B55D8DFE803F05054545454545454544E4E4E4E4E5454F7
:406A0000545454545454545454545454545454544E54545454545454545454305417781C17907B7801251095CBB99B46994604980025179010950F9C0CB117982060109D57
:406A40000DB109F10049584649461DB0BDE8F08F781C17907B7800241094002BE5D0302B07461DD17B78582B00F0AD84782B00F0AA847A1C1792174612F8013B302BF9D02D
:406A8000002B00F00B84012508950BE01792A8E74FF0000BD946CAE70021302B1091E1D0002608962F2B1D464FF0000B1FDD392B1DDC781C5E465C460EE006EB860603EB07
:406AC0004606303E1790804610F8013B01342F2B1D460FDD392B0DDC0F2CF3DC082CECDD0BEB8B0B03EB4B01A1F1300BEAE7B8465E465C465046FFF7C7FBD0F80090504615
:406B0000FFF7C2FB0068FEF77BFA49460246404606F00CFA8046002800F011810020A04684468646652D00F08480452D00F081800023B8F1000F45D0CCEB030C002C08BFD9
:406B400044463046CDF818C0089406F049FDB8F1100FB4BFC1464FF0100902460B46B9F1090FCDE9042313DDA74C04EBC90555E9122306F0ABFD044658460D4606F030FDBF
:406B800002460B462046294606F0EEFBCDE90401B8F10F0F00F33E810698002800F08F8340F3A685069C162C00F356859649DDE9042301EBC40ADAE9000106F087FD8346EF
:406BC000894638E7002840F0B5800898002840F0B180BEF1000F40F06C83493D252D00F26883DFE815F07B006603660366036603C7036603660366036603660366036603CB
:406C000066036603660366036603660366036603660366036603660366036603660366036603660366037B006603660366036603C703B8F1000F02D1002800F03683179A93
:406C4000511C1791557804922B2D00F024832D2D00F0198300220992A5F13001092900F2FF82302D06D1179D6B1C179313F8015B302DFAD0A5F1310108293FF659AF179911
:406C8000A5F130020A910A9B013117915D782F2D11DD392D0FDC023301E0392D0BDC179302EB820205EB42021D78303A2F2D194603F10103F1DC0A9BC91A082944F61F63DC
:406CC00002DC9A42B8BF1346099A002A3FF431AF5B42B8F1000F7FF42FAF73E74B49179A09E05B780132402B02DD5A2BD8BF2033A34240F0DE8211F8014F1346002CF0D129
:406D0000434C1792114614F8010F0D46002800F085856B780131402B02DD5A2BD8BF20338342F0D0501C179000252A46C7F6F07207920695DDF818B0DDF81C907BE65046D0
:406D4000179DFFF7A1FA0068FEF75AF92A1817922D5C002C40F08C82302D204605D10132179215780130302DF9D0A5F13101082900F2F982179F8446BE464FF00008012095
:406D8000A5F13001002900F0D4830128844400F0438508EB00035D1E6FEA08025319B8F1100F03F0010208F1010308DC092BCBBF0BEB8B0B06EB86064FEA4B0B7600AB425B
:406DC00000F0A483B2B101335A1E102A0FDC05E006EB86067600531C102A08DC092BCBBF0BEB8B0B06EB86064FEA4B0B7600AB4200F08C835A1C102BEDDC092AE8DD0BEBC3
:406E00008B0B4FEA4B0BE6E730E8000053E7000057E700000698C9EB080B00EB0B04002C40F3AE8314F00F0109D0A34DDDE9042305EBC10003C806F049FCCDE9040134F081
:406E40000F0440F04282DDF810B0DDF814900994394600965046089A434605F045F8069F0E90002FC0F2388400260A96069C0E9D24EAE4720C3511950B92CDF818B0CDF82B
:406E800020906BE00C9B002B00F0188100270025DDF814C00024C3F6F0750D96C3F6F07700260023C7F6F0760CEA0606C7F6E0739E4200F03981099800B3B6F1D46F1DD847
:406EC0000D9839467AA3D3E9002306F07BFE90B10D98394606F0BCFE002800F0BC8106F07FFB0D900F460C99002940F0B28107F100420D9C154605F1D6639D1B06980899A2
:406F000005F08AFC02460B462046294606F0DEFB069C089D02460B462046294606F024FACDE90401059C06900891099931B90025C7F6F0752540AE4200F033815046189932
:406F400004F04AFF5046594604F046FF5046414604F042FF5046494604F03EFF0E9F5046796804F013FF3B6911999E1CB200834600F10C00FDF73CFC16A919A8069A089B25
:406F800000910190504605F0C7FC01211890504605F096F8169A8046002AC0F284800A9C0B9FA418099E199B901BC2186FF47F718A42B4BF00F23343C3F13603FD18099F98
:406FC000E618A642B4BF33462346ED19AB42A8BF2B46002B02DDF61AED1AE41A0A9880B102464146504605F0DDF980464146189A504605F06FF818990746504604F0ECFE06
:407000001897002E05DD50461899324605F014FA18900B9A22B15946504605F0C3F98346002D05DD594650462A4605F005FA8346002C05DD41465046224605F0FDF980464B
:4070400018995A46504605F0DBFA0026C5684146C66081460C9505F0A5FAB042C0F2DA8100F02A824846414605F0B6FC00224FF0804304460F4606F0A5FD00287FF402AF65
:407080000023394600222046C3F6E07306F01EFB0C9A0D900F460AB901F100410D9C0D46DDF814C0FCE60B9D0A9CAF1A7AE700BF0000C0FFFFFFDF4130E80000049EDDF8D3
:4070C00014C016BBCCF313052DBB0023204639460022C3F6F073CDF80CC006F069FDDDF80CC0002840F06D820023204639460022C3F6E07306F0EAFADDF80CC00F460D906E
:40710000044601F100410D46CAE6012E03D16746002F00F04D81002700250D970024CBF6F075C3F6F077BBE6ACF1547E069A089BCDF814E0CDE90645DDE904011D46144643
:40714000CDE9124505F068FB02460B46DDE9060106F0BCFA02460B46DDE9040106F004F9CDE90401059D0021C7F6F0714FF6FF702940C7F69F40814264D94FF6FF7013998C
:40718000C7F6EF70814200F0DA814FF6FF763746C7F6EF774FF0FF320597049206920897CCE639460D9806F02BFD06F029FA0D9ECDE91401DDE914233046394606F0D2F83D
:4071C0000C9A06460F464ABB049B3BBBC4F3130424BB87A3D3E9002306F0EAFC00283FF4ADAECDF828B04E46DDF818B0DDF8209047465046189904F0EFFD50460A9904F032
:40720000EBFD5046394604F0E7FD50460E9904F0E3FD5046314604F0DFFD0CE43046394675A3D3E9002306F0C3FC0028D9D13046394673A3D3E9002306F0D8FC00283FF419
