:400000000080002011000000010500000105000080B500AF47F2BC63C4F2000344F2FA62C4F2000212681A6000F06EFA10B5054C237833B9044810B10448AFF3008001213E
:40004000217010BD788BFF1F0000000004FC000008B5064B1BB106480649AFF300800648016811B1054A02B1904708BD0000000004FC00007C8BFF1F0881FF1F0000000085
:4000800090B591B000AF07F11003184602F080F907F1340307F110021068516803C33B46184600F0F5F907F118043B460FCB84E80F003B46184600F05FF907F128033A4696
:4000C00092E8030083E803004FF0000387F83F3007F1180318464FF0240101F08DF907F14407BD4690BD00BF84B080B483B000AF07F1100C8CE80F003B7C002B07D17B7CB5
:40010000FB71FB79012B02D14FF00003BB7107F10C07BD4680BC04B0704700BF80B582B000AF49F60853C1F6FF734FF000021A7062B600F051FD00F0CDFD40F27910C0F2DD
:40014000000002F0CFF84FF0010002F0EBF802F0F7F840F2E900C0F2000001F0B3F803F08BF903F089F94FF00003FB7102F0D2F801F004F9FAE700BF90B593B000AF034603
:40018000FB77FB7F002B21D149F60853C1F6FF731B7803F10103DAB249F60853C1F6FF731A704FF0000387F8473049F60853C1F6FF731B78052B38D1FFF762FF49F6085357
:4001C000C1F6FF734FF000021A702EE0FB7F012B2BD107F11003184602F0DAF807F13C0307F110021068516803C33B46184600F04FF907F120043B460FCB84E80F003B466C
:40020000184600F0B9F807F130033A4692E8030083E803004FF0000387F8463007F1200318464FF0240101F0E7F807F14C07BD4690BD00BF80B582B000AF00F0A3FD0346FC
:40024000FB71FB79002B1FD049F62A53C1F6FF731B781D2B18D849F62A53C1F6FF731B781A4649F60C53C1F6FF73F979995449F62A53C1F6FF731B7803F10103DAB249F69B
:400280002A53C1F6FF731A7007F10807BD4680BD80B58EB000AF786039604FF0000387F8333038684FF61041C0F2000106F002FB78632BE007F10803786B4FF61441C0F21C
:4002C00000011A4606F096FA0346BB62BB6A002B13D097F83330BA684FEA830307F13801CB1843F8242C97F8333003F1010387F8333097F83330052B0BD04FF000004FF6BF
:400300001041C0F2000106F0D5FA78637B6B002BD0D14FF000033B744FF00003FB624FF00003FB620EE0FA68FB6A4FEA830307F13801CB1853F8243CD318FB60FB6A03F166
:400340000103FB62FB6A052BEDDDFA684CF6CD43CCF6CC43A3FB02134FEA9303FB607B6807F10C0292E8030083E80300786807F13807BD4680BD00BF80B584B000AF786081
:4003800049F62A53C1F6FF734FF000021A7040F23520C0F2000000F01BFD4FF47A7000F05BFE00F029FD07F10803184649F60C51C1F6FF71FFF76CFF7B6807F1080292E8DC
:4003C000030083E80300786807F11007BD4680BD80B582B000AF00F057FC0346FB71FB79002B1FD049F62C53C1F6FF731B78632B18D849F62C53C1F6FF731B781A4649F6B0
:400400003053C1F6FF73F979995449F62C53C1F6FF731B7803F10103DAB249F62C53C1F6FF731A7007F10807BD4680BD90B589B002AF786039604FF00003BB7507F10802E7
:4004400007F1080303F1040307F1080101F10C0100914FF00001019138684FF61841C0F2000106F0C7F90346DBB2BB75BB7D042B02D04FF00003BB757B681C4607F108037B
:400480000FCB84E80F00786807F11C07BD4690BD90B587B000AF786049F62C53C1F6FF734FF000021A704FF47A7000F0D5FD4FF0000000F0EDFC40F2D130C0F2000000F00B
:4004C00007FD4FF4FA6000F0C7FD4FF0010000F0DFFC00F011FD07F10803184649F63051C1F6FF71FFF7A2FF7B681C4607F108030FCB84E80F00786807F11C07BD4690BDD7
:4005000080B400AFFEE700BF80B586B000AF40F20103C0F200037B6140F2A023C0F201033B6140F20103C0F200037B6140F2A023C0F201033B613BE03B691B68FB603B69BD
:400540005B68BB603B699B683B604FF000037B600FE0FB681A68BB681A60BB6803F10403BB60FB6803F10403FB607B6803F104037B607A683B689A42EBD13B69DB683B6083
:400580004FF000037B600BE0BB684FF000021A60BB6803F10403BB607B6803F104037B607A683B689A42EFD13B6903F110033B617B69002B0CBF00230123DBB27A6902F177
:4005C000FF327A61002BB7D105F096FCFFF7A6FDFEE700BF80B582B000AF4EF60C53CEF200034FF48062C0F2FA521A604EF61453CEF200034EF61452CEF20002126842F4D5
:4006000000721A604FF000037B6019E07B68032B07D840F20003C0F200037A6853F8223003E040F20153C0F2000348F20002C1F6FF72796842F821307B6803F101037B60BB
:400640007B682F2BE2D947F2BC63C4F200031B78DAB248F20413C1F6FF731A704EF60853CEF2000348F20002C1F6FF721A6000F089F948F20013C1F6FF734FF000021A606B
:4006800007F10807BD4680BD80B582B000AF7860396078684FF000013A6805F081FD07F10807BD4680BD00BF80B584B000AFF860B9607A60F868B9687A6805F0C3FC07F1BF
:4006C0001007BD4680BD00BF80B483B000AF0346FB71FEE780B487B000AF786039604FF000033B614FF000037B612CE07B694FEA83037A68D3181B68BB60BB68FB73BB68DF
:4007000023F0FF03BB6017E03B694FEA43033A68D3181B781A46BB68D3183A694FEA420239688A1852781A703B6903F101033B61FB7B03F1FF33FB73FB7B002BE4D17B69AE
:4007400003F101037B617B69292BCFD907F11C07BD4680BC704700BF80B582B000AF4FF48143C4F200034FF000021A8044F28203C4F200034FF058021A7044F28403C4F23A
:4007800000034FF00E021A8044F28603C4F200034FF018021A7044F28803C4F200034FF019021A8044F28A03C4F200034FF018021A7044F28C03C4F200034FF49C721A80BC
:4007C00044F28E03C4F200034FF018021A7044F29003C4F200034FF0F9021A8044F29203C4F200034FF019021A7044F29403C4F2000340F6C3121A8044F29603C4F2000325
:400800004FF018021A704FF48643C4F200034FF002021A704FF040234FF008021A704FF48443C4F200034FF003021A7044F2A163C4F200034FF48472C4F600121278D2B237
:400840001A7044F22223C4F200034FF008021A8044F22023C4F2000341F251221A804FF00003FB704FF019037B6019E0FB784FEA4303DAB244F22523C4F200031B78DBB2B4
:4008800003F00103DBB21343DBB203F00303FB704FF4F07000F0C0FB7B6803F1FF337B607B68002B02D0FB78032BDFD17B68002B03D14FF00300FFF707FF44F20403C4F2F7
:4008C00000034FF480721A8044F20403C4F200034FF007021A7044F20603C4F200034FF000021A7044F20803C4F200034FF048021A7044F20403C4F200034FF000021A70CD
:4009000044F20103C4F200034FF002021A7044F2A233C4F2000344F2A232C4F200021278D2B242F03F02D2B21A7007F10807BD4680BD00BF80B483B000AF40F2CF13C4F6F8
:4009400000131B78FB7145F66E03C4F20003FA7902F00702D2B21A7045F66F03C4F20003FA794FEA1212D2B21A7045F67603C4F200034FF044021A7007F10C07BD4680BC7A
:40098000704700BF80B586B000AF72B644F2E863C4F2000344F2E862C4F200021278D2B242F00402D2B21A704FF00003FB7519E0FA7D13464FEA43039B184FEA43034FF648
:4009C0002842C0F200029B183B613B691A683B699B889BB210461946FFF756FEFB7D03F10103FB75FB7D0B2BE2D94FF00003FB7523E0FA7D13464FEA83039B184FEA430392
:400A00004FF67042C0F200029B18FB60FB681B68BB60FB685B687B60FB681A7A5B7A4FEA032313437B807B88B86879681A46FFF73BFEFB7D03F10103FB75FB7D032BD8D9B5
:400A40004FF090404FF0A801C4F60001FFF742FE45F20303C4F2010345F20302C4F201021278D2B242F00202D2B21A7045F21303C4F2010345F21302C4F201021278D2B236
:400A800042F00202D2B21A7044F2A033C4F2000344F2A032C4F200021278D2B242F04002D2B21A7044F2C233C4F2000344F2C232C4F200021278D2B242F01002D2B21A70BA
:400AC0004FF4A240C4F200004FF47261C4F600014FF00A02FFF7E8FD45F2C210C4F2000040F62C71C4F600014FF00802FFF7DCFD45F21010C4F2000040F63471C4F600011C
:400B00004FF00A02FFF7D0FD45F22010C4F200004FF47461C4F600014FF00A02FFF7C4FD45F24210C4F2000040F64C71C4F600014FF00802FFF7B8FD45F25010C4F2000087
:400B400040F65471C4F600014FF00A02FFF7ACFD45F26210C4F200004FF47661C4F600014FF00802FFF7A0FD44F22233C4F2000344F22232C4F200021278D2B242F00802F5
:400B8000D2B21A704FF49043C4F200034FF001021A70FFF7E1FD4FF49043C4F200034FF081021A704FF00403C4F208034FF001021A70FFF7BFFE44F2B030C4F2000044F215
:400BC000A031C4F200014FF00E02FFF76DFD07F11807BD4680BD00BF80B500AF48F69433C1F6FF731B78002B08D100F00BF848F69433C1F6FF734FF001021A7000F016F814
:400C000080BD00BF80B400AF46F28343C4F200034FF072021A7046F28753C4F200034FF020021A70BD4680BC704700BF80B582B000AF00F0FBF90346FB7146F29343C4F203
:400C4000000346F29342C4F200021278D2B242F02002D2B21A7046F29753C4F2000346F29752C4F200021278D2B242F01002D2B21A7000F08DF9FB79184600F0DBF907F124
:400C80000807BD4680BD00BF80B483B000AF4FF00003FB7146F26753C4F200031B78BB71BB7903F02003002B0DD046F24043C4F200031B78FB71BB7903F01E03002B02D0EE
:400CC0004FF00003FB71FB79184607F10C07BD4680BC704780B500AF48F69533C1F6FF731B78002B08D100F00BF848F69533C1F6FF734FF001021A7000F016F880BD00BFE1
:400D000080B400AF46F28143C4F200034FF072021A7046F28543C4F200034FF020021A70BD4680BC704700BF80B582B000AF00F07DF90346FB7146F29143C4F2000346F257
:400D40009142C4F200021278D2B242F02002D2B21A7046F29543C4F2000346F29542C4F200021278D2B242F01002D2B21A7000F031F9FB79184600F05DF907F10807BD464C
:400D800080BD00BF80B483B000AF4FF00003FB7146F26543C4F200031B78BB71BB7903F02003002B0DD046F24243C4F200031B78FB71BB7903F01E03002B02D04FF00003CD
:400DC000FB71FB79184607F10C07BD4680BC704780B582B000AF786000F04EF8786800F017F84FF0070000F027F800F039F807F10807BD4680BD00BF80B500AF00F03CF82D
:400E000040F20150C0F2000000F002F880BD00BF80B485B000AF78604EF60853CEF200031B68FB60FB6803F14C037A681A6007F11407BD4680BC704780B483B000AF0346FD
:400E4000FB714EF20343CEF20003FA794FEA4212D2B21A7007F10C07BD4680BC704700BF80B400AF4FF46143CEF200034FF008021A60BD4680BC704780B400AF4EF28013F3
:400E8000CEF200034FF008021A60BD4680BC704780B485B000AF0346FB714FF4A243C4F200031B78DBB223F00103FB734FF4A243C4F20003FA7902F00102D1B2FA7B0A43D5
:400EC000D2B21A7007F11407BD4680BC704700BF80B582B000AF786000F04EF8786800F017F84FF0070000F027F800F039F807F10807BD4680BD00BF80B500AF00F03CF895
:400F000040F20150C0F2000000F002F880BD00BF80B485B000AF78604EF60853CEF200031B68FB60FB6803F148037A681A6007F11407BD4680BC704780B483B000AF034600
:400F4000FB714EF20243CEF20003FA794FEA4212D2B21A7007F10C07BD4680BC704700BF80B400AF4FF46143CEF200034FF004021A60BD4680BC704780B400AF4EF28013F7
:400F8000CEF200034FF004021A60BD4680BC704780B400AF44F2A233C4F2000344F2A232C4F200021278D2B242F02002D2B21A7044F2B233C4F2000344F2B232C4F200023A
:400FC0001278D2B242F02002D2B21A70BD4680BC704700BF80B400AF44F2A233C4F2000344F2A232C4F200021278D2B242F00802D2B21A7044F2B233C4F2000344F2B2321D
:40100000C4F200021278D2B242F00802D2B21A70BD4680BC704700BF0230800800F0058000BF013800467FF4FCAF7047EFF3108072B6704780F31088704700BFAFF30080B5
:4010400080B483B000AF0346FB7101BE07F10C07BD4680BC704700BF80B582B000AF78600BE048F21813C1F6FF731B681846FFF7D3FF7B68A3F500437B607B68B3F5004FA3
:40108000EFD848F21013C1F6FF731B687A6802FB03F31846FFF7C0FF07F10807BD4680BD80B582B000AF0346FB80FA8848F21413C1F6FF731B7803FB02F31846FFF7ACFFC6
:4010C00007F10807BD4680BD80B584B000AF03463960FB714EF60853CEF200031B68FB60FB791F2B03D94FF00000FFF7A9FFFB7903F01F0303F110034FEA8303FA68D318F0
:401100001B68BB60FB7903F01F0303F110034FEA8303FA68D3183A681A60BB68184607F11007BD4680BD00BF80B582B000AF02460B46FA71BB71BB79072B03D94FF0000003
:40114000FFF77EFFFB791F2B03D94FF00000FFF777FFFB7903F01F0303F1604303F56443BA794FEA4212D2B21A7007F10807BD4680BD00BF80B500AF02F05AFC0346002B84
:4011800007D102F00FFC0346002B02D14FF0010301E04FF00003DBB2184680BD80B500AF00F0A4F900F080F902F0C4FC4FF00103184680BD80B500AF4FF0010000F016FCF5
:4011C0004FF00E0000F012FC80BD00BF80B400AF4AF25723C1F6FF731B78002B02D04FF0010301E04FF000031846BD4680BC704780B500AF4AF26A23C1F6FF731B78002B08
:401200000AD101F041F84AF26A23C1F6FF734FF001021A7003F0D2FB80BD00BF80B582B000AF02F091FA0346FB714AF26823C1F6FF731A8811464AF25413C1F6FF73F879C1
:40124000585402F101039AB24AF26823C1F6FF731A8007F10807BD4680BD00BF80B500AF02F0A0FB0346002B14D04FF0010002F0BDFB4AF26823C1F6FF731B88032B0FD993
:4012800002F064FC4AF25423C1F6FF734FF001021A7005E000F008F94FF0000002F0A6FB02F092FB80BD00BF80B500AF03F0CCFB4AF26A23C1F6FF734FF000021A7003F0C3
:4012C00003FC80BD80B582B000AF78604AF26023C1F6FF737A681A6000F0D4F802F056FB41F21D20C0F2000002F0FCFA41F25D20C0F2000002F0E2FB03F090FB03F0A4FB36
:4013000041F2A920C0F2000003F034FC00F0A8FA4AF25423C1F6FF734FF000021A704AF26523C1F6FF734FF001021A704AF26423C1F6FF734FF000021A704FF0160000F0EE
:4013400031FB07F10807BD4680BD00BF80B500AF00F0A0FA80BD00BF80B500AF02F0F6FB02F08EFA80BD00BF80B500AF02F0A8FA02F0E0FB02F0F6FB80BD00BF80B500AF8C
:40138000FFF7F8FE0346002B02D04FF0010331E04AF25423C1F6FF731B78002B0BD04AF25423C1F6FF734FF000021A70FFF7F6FE4FF002031EE04AF26523C1F6FF731B78DF
:4013C000002B0BD04AF26523C1F6FF734FF000021A70FFF7EFFE4FF003030BE0FFF7F6FE0346002B04D0FFF703FF4FF0030301E04FF00003184680BD80B582B000AF786001
:401400000B46FB70FB787868194600F031FB4FF00103184607F10807BD4680BD80B500AFFFF7A8FE0346002B02D04FF001030BE04AF25423C1F6FF731B78002B02D04FF09B
:40144000010301E04FF00003184680BD80B400AF4AF25523C1F6FF731B78032B02D14FF002030BE04AF25523C1F6FF731B78002B02D14FF0000301E04FF001031846BD46F2
:4014800080BC704780B500AF02F0A8F84FF00100FFF7E2FD00F008F84AF25623C1F6FF734FF000021A7080BD80B483B000AF4FF00003FB800BE0FA884AF25413C1F6FF73CC
:4014C0004FF000019954FB8803F10103FB80FB88FF2BF0D94AF26823C1F6FF734FF000021A8007F10C07BD4680BC704780B5C2B000AF4AF25413C1F6FF731B787E2B40F0F9
:401500009F804AF26823C1F6FF731B8803F1FF324AF25413C1F6FF739B5C7E2B40F090804FF00103A7F806314FF00003A7F804314FF0000387F803314FF00103A7F80631EB
:401540004FE0B7F806214AF25413C1F6FF739B5C7D2B04D14FF0010387F803313BE097F80331002B22D0B7F806214AF25413C1F6FF739B5C5D2B0CD1B7F804313A464FF094
:401580007D01D154B7F8043103F10103A7F804311DE0B7F804313A464FF07E01D154B7F8043103F10103A7F8043110E0B7F80421B7F806114AF25413C1F6FF73595C3B4658
:4015C0009954B7F8043103F10103A7F804314FF0000387F80331B7F8063103F10103A7F80631B7F806214AF26823C1F6FF731B8803F1FF339A42A4DBB7F80431A3F102033E
:401600009AB2B7F8043103F1FF333946CB5C4FEA032399B2B7F80431A3F102033846C35C0B439BB29BB23946084611461A4601F095FC0346002B03D03B46184600F0D8F816
:40164000FFF732FF07F58477BD4680BD80B584B000AF78600B467B804FF0000002F0FAF94FF00003FB810CE04FF00100FFF718FD02F012FA0346002B09D0FB8903F10103F0
:40168000FB81FA8942F20F739A42EDD900E000BF02F002FA0346002B04D04FF0010002F0D9F9A1E07B887868194601F027FC03467B814FF07E0002F08FF84FF00003BB812A
:4016C00028E0BB897A68D3181B787D2B08D14FF07D0002F081F84FF05D0002F07DF815E0BB897A68D3181B787E2B08D14FF07D0002F072F84FF05E0002F06EF806E0BB8941
:401700007A68D3181B78184602F066F8BB8903F10103BB81BA897B889A42D2D37B89DBB27D2B03D07B89DBB27E2B11D14FF07D0002F052F87B89DBB27D2B04D14FF05D0092
:4017400002F04AF809E04FF05E0002F045F804E07B89DBB2184602F03FF87B894FEA13239BB2DBB27D2B06D07B894FEA13239BB2DBB27E2B18D14FF07D0002F02DF87B8903
:401780004FEA13239BB2DBB27D2B04D14FF05D0002F022F810E04FF07D0002F01DF84FF05E0002F019F807E07B894FEA13239BB2DBB2184602F010F84FF07E0002F00CF829
:4017C00001F0FEFF03467B727B7A03F002034FEA6303002BF4D07B7A03F00103002BEFD04FF0010002F036F907F11007BD4680BD80B5AEB014AF786007F108031846796854
:4018000001F06AFCBB7A03F00103002B14D1694607F118024FF05003084611461A4604F011FC07F108030FCB01F012FC034618464FF00401FFF70AFF694607F118024FF0F6
:401840005003084611461A4604F0FCFB07F108030FCB00F00FFA07F16807BD4680BD00BF80B400AF4AF25523C1F6FF734FF000021A704AF26623C1F6FF734FF0FF021A70A6
:401880004AF26B23C1F6FF734FF000021A70BD4680BC704780B5ACB014AF4FF008033B704FF000037B704FF00603BB70694607F110024FF05003084611461A4604F0C2FB8A
:4018C0003B460FCB00F04CFC07F16007BD4680BD80B5ACB014AF4FF006033B704FF000037B704FF00603BB70694607F110024FF05003084611461A4604F0A4FB3B460FCB91
:4019000000F02EFC07F16007BD4680BD80B5ACB014AF4FF015033B704FF001037B704FF00603BB704FF000033B71694607F110024FF05003084611461A4604F083FB3B46C6
:401940000FCB00F00DFC07F16007BD4680BD00BF80B5AEB014AF0346FB714FF017033B724FF003037B724FF00603BB72FB793B734FF0EE037B734FF04803BB73694607F1DF
:4019800018024FF05003084611461A4604F05AFB07F108030FCB00F0E3FB07F16807BD4680BD00BF80B5AEB014AF0346FB714FF016033B724FF001037B724FF00603BB7267
:4019C000FB793B73694607F118024FF05003084611461A4604F036FB07F108030FCB00F0BFFB07F16807BD4680BD00BF80B5AEB014AF0346FB714FF002033B724FF001031C
:401A00007B724FF00603BB72FB793B73694607F118024FF05003084611461A4604F012FB07F108030FCB00F09BFB07F16807BD4680BD00BF80B5ACB014AF4FF00F033B70B0
:401A40004FF000037B704FF00603BB70694607F110024FF05003084611461A4604F0F2FA3B460FCB00F07CFB07F16007BD4680BD80B5B6B014AF78600B46FB704AF255238F
:401A8000C1F6FF731B78032B40F0BE804FF0170387F883304AF26623C1F6FF731B7887F86C304FF0FF0387F86D304FF0020387F86E304FF0000387F86F304FF0000387F8C8
:401AC00070304FF0000387F871304FF0000387F872304FF0000387F873304FF0000387F874304FF0000387F875304FF0000387F876304FF0000387F877304FF0000387F8C2
:401B000078304FF0000387F879304FF0000387F87A304FF0000387F87B304FF0020387F87C304FF0EE0387F87D304FF0480387F87E304FF0000387F87F304FF0010387F808
:401B400080304FF0FF0387F881304FF0FF0387F882304FF018033B7397F88320FB78D318DBB27B734FF00603BB734FF00003C7F884304FF00003C7F8843011E007F16C0288
:401B8000D7F88430D3181A7807F10C01D7F88430CB181A71D7F8843003F10103C7F8843097F88320D7F884309A42E7DC97F88330C7F8843013E097F88330D7F88420D31AA3
:401BC0007A68D3181A7807F10C01D7F88430CB181A71D7F8843003F10103C7F884307B7B1A46D7F884309A42E5DC694607F11C024FF05003084611461A4604F023FA07F1C7
:401C00000C030FCB00F0ACFA07F18807BD4680BD80B584B000AF78604FF00003FB604FF00103FB724FF00003FB6019E0FB684FEAC30248F21C13C1F6FF73D318786819466E
:401C40004FF0080204F0A2F90346FB72FB7A002B02D14FF0010308E0FB6803F10103FB60FB68282BE2D94FF00103184607F11007BD4680BD84B090B5B5B012AF07F1980CE6
:401C80008CE80F004AF25723C1F6FF731B78002B0AD097F8982049F69453C1F6FF731B789A4201D100F0A6FA4AF26423C1F6FF731B78002B40D197F89830022B40F0E181F2
:401CC00097F89D3087F8863097F88630012B40F0D88107F19C03C7F88030D7F8803003F102031846FFF794FF03461A464AF26423C1F6FF731A704AF26423C1F6FF731B7856
:401D0000002B40F0BE814FF000033B704FF000037B704AF26023C1F6FF731C68694607F110024FF04103084611461A4604F08AF93B460FCBA047A4E197F89830022B40F050
:401D4000AC8097F89D3087F87F3097F87F300E2B40D107F19C03BB67BB6F9B78072B03D0BB6F9B78082B08D14AF25523C1F6FF734FF000021A70FFF78DFDBB6F9B78022B4F
:401D800015D0BB6F9B78032B11D0BB6F9B78042B0DD0BB6F9B78052B09D04AF25523C1F6FF734FF000021A70FFF792FD69E1BB6F9B78052B40F062814AF25523C1F6FF738F
:401DC0001B78002B40F05A814FF00103BB67FFF79DFD53E197F87F300F2B40F052814AF26B23C1F6FF731B78002B00F04A814FF0000387F8873016E097F88730C3F1070398
:401E000097F8872002F1060207F198018A18127907F1880C634403F8342C97F8873003F1010387F8873097F88730072BE4D907F15403D3E90023C7E91C234AF25823C1F6F1
:401E4000FF731B78002B0CD14AF25823C1F6FF735A683B6FD2184AF25823C1F6FF735A600BE03A6F4AF25823C1F6FF735B68D21A4AF25823C1F6FF735A604AF25823C1F65A
:401E8000FF735B68184600F077FA4AF26B23C1F6FF734FF000021A70F3E097F898300F2B33D107F19C03FB66FB6E1B79022B15D0FB6E1B79032B11D0FB6E1B79042B0DD0EC
:401EC000FB6E1B79052B09D04AF25523C1F6FF734FF000021A70FFF7FBFCD2E0FB6E1B79052B40F0CD804AF25523C1F6FF731B78002B40F0C5804AF25523C1F6FF734FF0BF
:401F000001021A70FFF702FDBAE097F89830152B24D107F19C03BB66BB6E1B78002B13D14AF25523C1F6FF734FF002021A70BB6E5A784AF26623C1F6FF731A70BB6E5B785D
:401F40001846FFF705FD9CE04AF25523C1F6FF734FF000021A70FFF79DFC92E097F89830172B30D107F19C037B667B6E1B78002B1FD14AF25523C1F6FF734FF003021A7092
:401F80004FF000033B704FF001037B704AF26023C1F6FF731C68694607F110024FF04103084611461A4604F04DF83B460FCBA04767E04AF25523C1F6FF734FF000021A70EF
:401FC000FFF768FC5DE097F89830192B59D107F1AD033B663B6E1B78EE2B52D13B6E03F101031B78482B4CD197F8AF30012B24D197F8B530FF2B20D197F8B630FF2B1CD156
:4020000007F1B103FB6597F8B0204AF25823C1F6FF731A70FB6D1A684AF25823C1F6FF735A604AF26B23C1F6FF734FF001021A704FF00F00FFF7DAFC23E04FF001033B707D
:4020400007F1010107F1AF024FF05003084611461A4603F0F7FF4AF26023C1F6FF731C68694607F110024FF04103084611461A4603F0E8FF3B460FCBA04702E000BF00E0F3
:4020800000BF07F18C07BD46BDE8904004B0704780B483B000AF0346FB71F97949F69452C1F6FF720B464FEA43035B184FEA4313D3184FF0FF021A70F97949F69452C1F694
:4020C000FF720B464FEA43035B184FEA4313D3184FF0FF025A70F97949F69452C1F6FF720B464FEA43035B184FEA4313D3184FF0FF029A70F97949F69452C1F6FF720B46D2
:402100004FEA43035B184FEA4313D3184FF0FF021A7107F10C07BD4680BC704780B582B000AF4AF25723C1F6FF734FF000021A704FF000037B604FF000037B6008E07B68A2
:40214000DBB21846FFF7A4FF7B6803F101037B607B68092BF3DD07F10807BD4680BD00BF84B080B500AF07F1080C8CE80F004AF25723C1F6FF731B780A2B02D100F03AF8F5
:402180000CE04AF25723C1F6FF731B7803F10103DAB24AF25723C1F6FF731A704AF25723C1F6FF731B7803F1FF33DBB21846FFF76FFF4AF25723C1F6FF731B7803F1FF3157
:4021C00049F69452C1F6FF720B464FEA43035B184FEA4313D318194607F108024FF06003084611461A4603F02DFFBD46BDE8804004B0704780B582B000AF4FF00003FB7117
:402200004FF00103FB712AE0FB7903F1FF30F97949F69452C1F6FF7203464FEA43031B184FEA4313D01849F69452C1F6FF720B464FEA43035B184FEA4313D31801461A466C
:402240004FF06003084611461A4603F0FBFEFB791846FFF71DFFFB7903F10103FB71FB79092BD1D94AF25723C1F6FF731B7803F1FF33DAB24AF25723C1F6FF731A7007F138
:402280000807BD4680BD00BF90B595B014AF4AF25723C1F6FF731B78002B1ED049F69454C1F6FF74694604F110024FF05003084611461A4603F0C6FE94E80F0000F086FEE4
:4022C000024649F69453C1F6FF735B7803F103039BB210461946FFF7B9F907F10407BD4690BD00BF80B582B000AF7860786800F05DF807F10807BD4680BD00BF80B500AFC1
:4023000000F076F880BD00BF80B500AF00F076F880BD00BF80B500AF00F076F80346184680BD00BF80B582B000AF0346FB71FB79184600F03FFA07F10807BD4680BD00BF54
:4023400080B500AF00F058FA80BD00BF80B500AF00F082FA80BD00BF80B582B000AF3B4683E803003B4693E8030000F05DF807F10807BD4680BD00BF80B582B000AF7860B2
:40238000786800F093F807F10807BD4680BD00BF80B582B000AF78607B68184600F0D6F8786807F10807BD4680BD00BF80B582B000AF786000F0E0FE00F036F900F01EF907
:4023C00000F062FA4AF28823C1F6FF737A681A6007F10807BD4680BD80B500AF00F0CCFE00F022F900F00AF900F04EFA80BD00BF80B500AF01F0E8FF80BD00BF80B500AF72
:4024000002F062F880BD00BF80B500AF00F024F90346002B04D000F083FA4FF0010301E04FF00003184680BD80B584B000AF3B4683E803003B78184600F0BAFC03463B72F9
:402440007B78184600F0C8FC03467B72BB78184600F0D6FC0346BB72FB78184600F0E4FC0346FB723B79184600F0F2FC03463B737B79184600F0FCFC03467B73FB88DBB299
:4024800003F13003DBB2184600F006FD0346BB7307F108034FF0030019464FF0070200F023F907F11007BD4680BD00BF80B584B000AF786007F108031846796800F00AF876
:4024C00007F1080393E80300FFF7AEFF07F11007BD4680BD80B586B000AF786039603B683B6107F11003184603F0FAFC78617B691B68DBB23B727B695B68DBB27B727B69CE
:402500009B68DBB2BB727B69DB68DBB2FB727B699B69DBB23B737B691B69DBB203F10103DBB27B737B695B699BB203F26C739BB2FB817B681A4607F1080303CB106051606B
:40254000786807F11807BD4680BD00BF80B586B000AF78604FF003004FF0070100F09AF878617B691B78184600F03CFB03463B737B6903F101031B78184600F059FB034642
:402580007B737B6903F102031B78184600F064FB0346BB737B6903F103031B78184600F06FFB0346FB737B6903F104031B78184600F07AFB03463B747B6903F105031B7819
:4025C000184600F081FB03467B747B6903F106031B78184600F08CFB034603F5FA639BB27B827B681A4607F10C0303CB10605160786807F11807BD4680BD00BF80B582B012
:4026000000AF4FF000033B714FF000037B7107F104034FF0000019464FF0020200F064F807F10807BD4680BD80B582B000AF4FF0020000F01DF80346FB71FB7903F0E00301
:40264000E02B05D14FF002004FF0800100F038F807F10807BD4680BD80B500AF02F018F90346002B14BF00230123DBB2184680BD80B582B000AF0346FB71FB794FF068008E
:40268000194600F05DFE0346184607F10807BD4680BD00BF80B582B000AF02460B46FA71BB71FA79BB794FF0680011461A4600F065FE0346184607F10807BD4680BD00BF78
:4026C00080B582B000AF02460B46FA71BB71FA79BB794FF0680011461A4600F08FFD07F10807BD4680BD00BF80B582B000AF396013460246FA71BB71FA79BB794FF06800D8
:4027000011463A6800F094FD07F10807BD4680BD80B500AF02F0CEF880BD00BF90B583B000AF00F031F90346FB714AF27823C1F6FF731B781946F8794AF27823C1F6FF73E7
:402740001A78FB79B3FBF2F402FB04F29B1ADBB2C21A4AF27823C1F6FF731B7892FBF3F303F1010303FB01F148F68903C8F6880383FB01235B184FEA63124FEAE173D21A71
:4027800013464FEA03139B1A4FEA8303CA1A1346BB71BB79184600F01FFB034603F07F03DBB24FF00A001946FFF78AFF07F10C07BD4690BD80B584B000AF0346FB714AF222
:4027C0007823C1F6FF73FA791A704FF00000FFF74FFF0346FB73FB7B43F00203FB73FB7B4FF000001946FFF76BFFFFF797FF07F11007BD4680BD00BF80B582B000AF4FF05F
:402800000000FFF735FF0346FB71FB7943F00403FB71FB794FF000001946FFF751FF07F10807BD4680BD00BF80B582B000AF4FF00100FFF71DFF0346FB71FB7923F010038A
:40284000FB71FB794FF001001946FFF739FF07F10807BD4680BD00BF80B582B000AF4FF00000FFF705FF0346FB71FB7923F00403FB71FB794FF000001946FFF721FF07F187
:402880000807BD4680BD00BF80B582B000AF4FF00F00FFF7EDFE0346FB71FB7943F03803FB71FB794FF00F001946FFF709FF07F10807BD4680BD00BF80B582B000AF4FF048
:4028C0000003FB714FF00100FFF7D2FE0346BB71BB7903F01003002B07D0BB7923F01003BB71FB7943F00103FB71BB7903F00803002B09D0BB7923F00803BB71FFF70EFF5E
:40290000FB7943F00203FB71BB794FF001001946FFF7D6FEFB79184607F10807BD4680BD80B582B000AFFFF7C7FF0346FB71FB7903F00103002B07D04AF28823C1F6FF73C5
:402940001B684FF000009847FB7903F00203002B07D04AF28823C1F6FF731B684FF00100984707F10807BD4680BD00BF80B500AF4FF00300FFF77CFE0346184600F032F938
:402980000346184680BD00BF80B500AF4FF00400FFF76EFE0346184600F04AF90346184680BD00BF80B500AF4FF00500FFF760FE0346184600F050F90346184680BD00BF6F
:4029C00080B500AF4FF00600FFF752FE0346184600F056F90346184680BD00BF80B500AF4FF00700FFF744FE0346184600F05CF90346184680BD00BF80B500AF4FF00800C3
:402A0000FFF736FE0346184600F05EF90346184680BD00BF80B500AF4FF00900FFF728FE0346184600F064F9034603F5FA639BB2184680BD80B582B000AF0346FB71FB79DA
:402A40003C2B02D94FF03C03FB71FB79184600F0AFF903464FF003001946FFF731FE07F10807BD4680BD00BF80B582B000AF0346FB71FB793C2B02D94FF03C03FB71FB79CC
:402A8000184600F0A9F903464FF004001946FFF717FE07F10807BD4680BD00BF80B582B000AF0346FB71FB79182B02D94FF00003FB71FB79184600F0A3F903464FF0050034
:402AC0001946FFF7FDFD07F10807BD4680BD00BF80B582B000AF0346FB71FB791F2B02D94FF01F03FB71FB79184600F09DF903464FF006001946FFF7E3FD07F10807BD462B
:402B000080BD00BF80B582B000AF0346FB71FB79072B02D94FF00703FB71FB79184600F097F903464FF007001946FFF7C9FD07F10807BD4680BD00BF80B582B000AF034637
:402B4000FB71FB790C2B02D94FF00C03FB71FB79184600F08DF903464FF008001946FFF7AFFD07F10807BD4680BD00BF80B582B000AF0346FB80FB88A3F5FA63FB80FB887A
:402B8000DBB2184600F088F903464FF009001946FFF796FD07F10807BD4680BD80B483B000AF13460246FA710A46BA717B71FA79BB791340DBB24FEA1313DBB21A464FEA64
:402BC0008202D3184FEA4303DAB2F9797B790B40DBB2D318DBB2184607F10C07BD4680BC704700BF80B582B000AF0346FB71FB794FEAD313DBB2012B0BD1FB79032B08D119
:402C0000FB7903F07F03DBB24FF003001946FFF757FDFB7918464FF070014FF00F02FFF7BDFF0346184607F10807BD4680BD00BF80B582B000AF0346FB71FB7918464FF026
:402C400070014FF00F02FFF7A9FF0346184607F10807BD4680BD00BF80B582B000AF0346FB71FB7918464FF030014FF00F02FFF795FF0346184607F10807BD4680BD00BFB4
:402C800080B582B000AF0346FB71FB7918464FF030014FF00F02FFF781FF0346184607F10807BD4680BD00BF80B483B000AF0346FB71FB7903F00303DBB2184607F10C0766
:402CC000BD4680BC704700BF80B582B000AF0346FB71FB7918464FF010014FF00F02FFF75DFF0346184607F10807BD4680BD00BF80B582B000AF0346FB71FB7918464FF007
:402D0000F0014FF00F02FFF749FF0346184607F10807BD4680BD00BF90B482B000AF13460246FA710A46BA717B71FA794CF6CD43CCF6CC43A3FB02134FEAD3010B464FEAEF
:402D400083035B184FEA4303D31ADAB27B791340DBB2D8B2FC79FA794CF6CD43CCF6CC43A3FB02134FEAD3010B464FEA83035B184FEA4303D31ADBB2E21A46F26763C6F207
:402D8000666383FB02134FEAA3014FEAE273CB1A4FEA0313DAB2BB791340DBB202461343DBB2DBB2184607F10807BD4690BC704780B582B000AF0346FB71FB7918464FF079
:402DC00070014FF00F02FFF7A7FF0346184607F10807BD4680BD00BF80B582B000AF0346FB71FB7918464FF070014FF00F02FFF793FF0346184607F10807BD4680BD00BFF7
:402E000080B582B000AF0346FB71FB7918464FF030014FF00F02FFF77FFF0346184607F10807BD4680BD00BF80B582B000AF0346FB71FB7918464FF030014FF00F02FFF7C1
:402E40006BFF0346184607F10807BD4680BD00BF80B483B000AF0346FB71FB7903F00303DBB2184607F10C07BD4680BC704700BF80B582B000AF0346FB71FB7918464FF07C
:402E800010014FF00F02FFF747FF0346184607F10807BD4680BD00BF80B582B000AF0346FB71FB7918464FF0F0014FF00F02FFF733FF0346184607F10807BD4680BD00BFD6
:402EC00080B483B000AF02460B46FA807B71FB884FEA13239AB2F9887B794B40D9B24FF69843C0F2000333F8113053409BB2184607F10C07BD4680BC704700BF80B584B04C
:402F000000AF78600B467B804FF00003FB814FF6FF73FB814FF000037B734FF000037B730EE07B7B7A68D3181B78FA8910461946FFF7C6FF0346FB817B7B03F101037B7395
:402F40007B7B9BB27A889A42EBD8FB896FEA03039BB2184607F11007BD4680BD80B584B000AF786013460A467A803B804FF00003FB814FF6FF73FB814FF000037B734FF0E2
:402F800000037B730EE07B7B7A68D3181B78FA8910461946FFF794FF0346FB817B7B03F101037B737B7B9BB27A889A42EBD8FB896FEA03039BB23A889A4214BF00230123AE
:402FC000DBB2184607F11007BD4680BD84B080B483B000AF07F1100C8CE80F003A7C48F69C33C1F6FF731A707A7C48F69C33C1F6FF735A70BA7C48F69C33C1F6FF739A70D4
:403000004FF000037B604FF000037B6010E07B6803F103027B6807F11001CB18197948F69C33C1F6FF7399547B6803F101037B607B7C1A467B689A42E9DC48F69C33C1F6B1
:40304000FF73184607F10C07BD4680BC04B0704784B080B400AF07F1040C8CE80F003A7948F69833C1F6FF731A7048F69833C1F6FF734FF000025A70BA7948F69833C1F68A
:40308000FF739A7048F69833C1F6FF739B7843F00103DAB248F69833C1F6FF739A7048F69833C1F6FF739B7823F00803DAB248F69833C1F6FF739A7048F69833C1F6FF73F3
:4030C0004FF00002DA7048F69833C1F6FF731846BD4680BC04B0704780B59CB000AF786039603B681B783B733B685B787B733B689B78BB737B7B87F86F30BB7B03F00103FD
:40310000002B05D097F86F3003F1010387F86F304FF0000387F86E304FF0000387F86E3013E097F86E3097F86E2002F1030239688A18127807F17001CB1803F8602C97F829
:403140006E3003F1010387F86E3097F86E2097F86F309A42E5D37B68194607F10C024FF06003084611461A4602F06CFF786807F17007BD4680BD00BF80B500AF00F06CFDE6
:4031800080BD00BF80B584B000AF396013460246FA71BB7101F02AFB4FF00003FB604FF00003FB600EE0FB683A68D3181A784AF26C23C1F6FF73F9685B181A70FB6803F1C1
:4031C0000103FB60BA79FB689A42ECDCFA79BB7910464AF26C21C1F6FF711A464FF0000301F088F900BF01F0E1FA034603F00203002BF8D007F11007BD4680BD80B584B0BE
:4032000000AF13460246FA710A46BA717B71BB793B737B797B73FA7907F10C03104619464FF00202FFF7AEFF07F11007BD4680BD2DE9F04387B000AF3A600246FA710A4678
:40324000BA717B716B461E467B7903F1010101F1FF333B61084602464FF000034FEA52704FEAC30940EA09094FEAC208084602464FF000034FEA52704FEAC30505434FEA0C
:40328000C2040B4603F107034FEAD3034FEAC303ADEB030D6B4603F10003FB60FB68BA791A704FF000037B614FF000037B610CE07B6903F101037A6939688A181178FA680B
:4032C000D1547B6903F101037B617A797B699A42EEDCFA687B7903F10103DBB2F979084611461A46FFF74EFFB54607F11C07BD46BDE8F08380B582B000AF02460B46FA7194
:40330000BB7101F073FAFA79BB7910464AF27C21C1F6FF711A464FF0000301F097F900BF01F044FA034603F00103002BF8D04AF27C23C1F6FF73184607F10807BD4680BD19
:4033400080B584B000AF02460B46FA71BB71FA7907F10603104619464FF00102FFF712FFFB7918464FF00101FFF7C4FFF860FB681B78184607F11007BD4680BD80B582B065
:4033800000AF13460246FA710A46BA717B71FA7907F10603104619464FF00102FFF7F2FEFA797B7910461946FFF7A4FF0346184607F10807BD4680BD42780178431C42EA39
:4033C00001205A789B7842EA002043EA00207047094A0A4BC11C10B5146821F0030118680919814201D9002010BD11609A685868013220189A6010BD10A3FF1F9C8CFF1FF4
:4034000008B5FFF7E5FF00B9FEE708BDFFF7E0BF30B1044A9368013B93600BB9024A1360704700BF9C8CFF1F10A3FF1F014B5860196070479C8CFF1F38B50546FFF7E0FF0D
:40344000002104462A4600F081F8204638BD000010B5084CA37C0BB1002010BD4FF40073238200F0A9F8A37C012043F00103A37410BD00BF8CA2FF1F38B5FFF7E9FF20B3DC
:40348000124C4200E2600001FFF7D6FF238AA060E0685843FFF7D0FFA568E168228A002304E005EBC3046060013380188B42F8D31020FFF7C1FF054C60612820FFF7BCFF34
:4034C000A37CA06143F00203A37438BD8CA2FF1F08B5436813B94FF0FF3008BD984708BDF8B5174C064694F85B10E56D69B960220127204600F02AF884F85B70E565304621
:40350000FFF7E6FF00280EDA18E045B96020FFF77DFFE06518B12946602200F017F8E46D002CE0D10AE0074B2660DA6F0132DA670323207184F85B7084F85A302046F8BDEE
:40354000A8A2FF1F8CA2FF1FFFF7CABF70B5034602E003F8011C013A1C4622B103F003050133002DF5D193081ED04FF001354D4308E044F8105C44F80C5C44F8085C44F880
:40358000045C043B032BA44604F11004F1DC1C46002603E04CF80650013B0436002BF9D102F003020CEB8404002302E0E154013A0133002AFAD170BD80B500AF48F6A840C3
:4035C000C1F6FF704FF48051FFF730FF4FF6E060C0F20000FFF7B8FF80BD00BF80B500AF49F6A843C1F6FF731B78002B08D100F00BF849F6A843C1F6FF734FF001021A70AC
:4036000000F02AF880BD00BF80B400AF46F28E43C4F200034FF072021A7046F28943C4F200034FF020021A7046F22753C4F200034FF007021A7046F23753C4F200034FF0FB
:4036400048021A7046F28653C4F200034FF000021A70BD4680BC704780B582B000AFFDF7E5FC0346FB7146F29E43C4F2000346F29E42C4F200021278D2B242F02002D2B2C3
:403680001A7046F29943C4F2000346F29942C4F200021278D2B242F01002D2B21A7046F29653C4F2000346F29652C4F200021278D2B242F01002D2B21A7001F0AFFAFB7968
:4036C0001846FDF7B7FC07F10807BD4680BD00BF80B582B000AFFDF7A9FC0346FB7146F29E43C4F2000346F29E42C4F200021278D2B222F02002D2B21A7001F0B1FA46F295
:403700009943C4F2000346F29942C4F200021278D2B222F01002D2B21A7046F29653C4F2000346F29652C4F200021278D2B222F01002D2B21A70FB791846FDF77BFC07F1C2
:403740000807BD4680BD00BF80B483B000AF46F24E43C4F200031B78FB71FB79184607F10C07BD4680BC704780B582B000AFFDF75DFC0346FB7146F29E43C4F2000346F2AF
:403780009E42C4F200021278D2B242F00102D2B21A7046F29E43C4F2000346F29E42C4F200021278D2B222F00102D2B21A70FB791846FDF73FFC07F10807BD4680BD00BF46
:4037C00080B400AF46F26653C4F200031B78DBB21846BD4680BC704780B483B000AF0346FB7100BF46F26653C4F200031B78DBB203F00403002BF5D146F24653C4F20003FF
:40380000FA791A7007F10C07BD4680BC704700BF80B582B000AFFDF709FC0346FB7146F29653C4F2000346F29652C4F200021278D2B242F00102D2B21A7046F29653C4F22D
:40384000000346F29652C4F200021278D2B222F00102D2B21A70FB791846FDF7EBFB07F10807BD4680BD00BF80B400AFBD4680BC704700BF80B400AFBD4680BC704700BF5A
:4038800080B500AF46F29943C4F200031B78DBB203F01003002B07D049F6AC43C1F6FF734FF001021A7006E049F6AC43C1F6FF734FF000021A70FFF70BFFFFF7D5FF80BDFD
:4038C00080B500AFFFF7D6FFFFF74EFFFFF7A0FF49F6AC43C1F6FF731B78002B01D0FFF7BBFE80BD80B582B000AF786000F042F8786800F00BF84FF0070000F01BF800F04B
:403900002DF807F10807BD4680BD00BF80B485B000AF78604EF60853CEF200031B68FB60FB6803F144037A681A6007F11407BD4680BC704780B483B000AF0346FB714EF21E
:403940000143CEF20003FA794FEA4212D2B21A7007F10C07BD4680BC704700BF80B400AF4FF46143CEF200034FF002021A60BD4680BC704780B400AF4EF28013CEF20003B9
:403980004FF002021A60BD4680BC704780B400AF4EF28023CEF200034FF002021A60BD4680BC704780B400AF45F22113C4F200031B78DBB203F008034FEAD303DBB21846F9
:4039C000BD4680BC704700BF80B400AF44F28253C4F200031B78DBB203F008034FEAD303DBB21846BD4680BC704700BF80B485B000AF0346FB7145F22013C4F200031B781B
:403A0000DBB223F00403FB7345F22013C4F20003FA794FEA8202D2B202F00402D1B2FA7B0A43D2B21A7007F11407BD4680BC704780B400AF45F22113C4F200031B78DBB21F
:403A400003F004034FEA9303DBB21846BD4680BC704700BF80B485B000AF0346FB7145F22013C4F200031B78DBB223F04003FB7345F22013C4F20003FA794FEA8212D2B222
:403A800002F04002D1B2FA7B0A43D2B21A7007F11407BD4680BC704780B400AF45F22113C4F200031B78DBB203F020034FEA5313DBB21846BD4680BC704700BF80B582B093
:403AC00000AF786000F042F8786800F00BF84FF0070000F01BF800F02DF807F10807BD4680BD00BF80B485B000AF78604EF60853CEF200031B68FB60FB6803F158037A681A
:403B00001A6007F11407BD4680BC704780B483B000AF0346FB714EF20643CEF20003FA794FEA4212D2B21A7007F10C07BD4680BC704700BF80B400AF4FF46143CEF2000390
:403B40004FF040021A60BD4680BC704780B400AF4EF28013CEF200034FF040021A60BD4680BC704780B400AF4FF46243CEF200034FF040021A60BD4680BC704780B500AF87
:403B800044F6D613C4F200034FF002021A7044F6C813C4F200034FF081021A7044F6DB13C4F200034FF00F021A7044F6DC13C4F200034FF000021A704EF28013CEF2000344
:403BC0004FF400421A604FF00F004FF00701FDF7ABFA4FF00F0043F6CD51C0F20001FDF773FA4AF21433C1F6FF734FF010021A7000F014FE00F02CFE00F0F8FD80BD00BF5B
:403C000080B582B000AFFDF711FA0346FB7144F2A533C4F2000344F2A532C4F200021278D2B242F00402D2B21A7044F2B533C4F2000344F2B532C4F200021278D2B242F0EE
:403C40000402D2B21A70FB791846FDF7F3F907F10807BD4680BD00BF80B500AF49F6B043C1F6FF731B78002B08D1FFF787FF49F6B043C1F6FF734FF001021A70FFF7C0FF4A
:403C80004FF46143CEF200034FF400421A6080BD80B582B000AF4EF28013CEF200034FF400421A6044F6D613C4F2000344F6D612C4F200021278D2B222F01002D2B21A707D
:403CC00044F6D713C4F200031B7844F6DB13C4F200031B78DAB248F26423C1F6FF73DA7044F6DC13C4F200031B78DAB248F26423C1F6FF731A7144F6D613C4F2000344F694
:403D0000D612C4F200021278D2B222F00202D2B21A704FF00200FDF7C3F944F6D613C4F2000344F6D612C4F200021278D2B242F00202D2B21A7044F6DB13C4F2000348F29D
:403D40006422C1F6FF72D2781A7044F6DC13C4F2000348F26422C1F6FF7212791A70FDF765F90346FB7144F2A533C4F2000344F2A532C4F200021278D2B222F00402D2B2A5
:403D80001A7044F2B533C4F2000344F2B532C4F200021278D2B222F00402D2B21A70FB791846FDF747F94EF28023CEF200034FF400421A604AF21433C1F6FF734FF01002F1
:403DC0001A7007F10807BD4680BD00BF80B582B000AF44F6D713C4F200031B78FB714AF21433C1F6FF731B78DBB203F04003DBB2002B00F0A082FB7903F00103002B00F0EF
:403E000063824AF21433C1F6FF731B78DBB2A3F14503052B00F2538201A252F823F000BF393E00002F400000BF420000BF420000393E0000D7410000FB7923F02003FB71B2
:403E4000FB7903F00A03DBB2082B40F085804AF21433C1F6FF731B78DBB2452B6DD14AF22833C1F6FF731B78DBB2002B21D044F6D813C4F200034AF21832C1F6FF7212685D
:403E80001278D2B21A7044F6D713C4F200034FF004021A704AF22033C1F6FF734FF001021A704AF21433C1F6FF734FF046021A700AE24AF21C33C1F6FF731B78DBB203F0CA
:403EC0000203002B1CD04AF21E33C1F6FF731B78DBB243F00A03DAB24AF21E33C1F6FF731A704AF21433C1F6FF734FF060021A704EF28013CEF200034FF400421A60E3E194
:403F000044F6D613C4F2000344F6D612C4F200021278D2B242F01002D2B21A7044F6D913C4F200034FF010021A7044F6D713C4F200034FF004021A70C6E144F6D713C4F284
:403F400000034FF000021A704AF21433C1F6FF734FF04A021A70B7E1FB7903F00A03DBB20A2B5FD14AF21E33C1F6FF731B78DBB263F05F03DAB24AF21E33C1F6FF731A705D
:403F80004AF21C33C1F6FF731B78DBB203F00203002B2AD04AF21433C1F6FF731B78DBB203F00803002B02D04FF0090201E04FF00A024AF21E33C1F6FF731B78DBB21343A7
:403FC000DAB24AF21E33C1F6FF731A704AF21433C1F6FF734FF060021A704EF28013CEF200034FF400421A606EE144F6D613C4F2000344F6D612C4F200021278D2B242F044
:404000001002D2B21A7044F6D913C4F200034FF010021A7044F6D713C4F200034FF004021A7051E14FF00000FDF70AF84CE1FB7903F00203002B7CD14AF22033C1F6FF73CA
:404040001B78DAB24AF22833C1F6FF731B78DBB29A4228D244F6D813C4F200034AF21832C1F6FF7211684AF22032C1F6FF721278D2B28A181278D2B21A7044F6D713C4F28E
:4040800000034FF004021A704AF22033C1F6FF731B78DBB203F10103DAB24AF22033C1F6FF731A7010E14AF21C33C1F6FF731B78DBB203F00203002B1CD04AF21E33C1F678
:4040C000FF731B78DBB243F00A03DAB24AF21E33C1F6FF731A704AF21433C1F6FF734FF060021A704EF28013CEF200034FF400421A60E9E000F0C6FB44F6D613C4F2000360
:4041000044F6D612C4F200021278D2B242F01002D2B21A7044F6D913C4F200034FF010021A7044F6D713C4F200034FF004021A70CAE04AF21C33C1F6FF731B78DBB203F06E
:404140000203002B1CD04AF21E33C1F6FF731B78DBB263F06503DAB24AF21E33C1F6FF731A704AF21433C1F6FF734FF060021A704EF28013CEF200034FF400421A60A3E0D7
:4041800044F6D613C4F2000344F6D612C4F200021278D2B242F01002D2B21A7044F6D913C4F200034FF010021A7044F6D713C4F200034FF004021A704AF21E33C1F6FF73CD
:4041C0001B78DBB263F06F03DAB24AF21E33C1F6FF731A7078E04AF22433C1F6FF731A684AF21F33C1F6FF731B78DBB2D21844F6D813C4F200031B78DBB213704AF21F33A8
:40420000C1F6FF731B78DBB203F10103DAB24AF21F33C1F6FF731A704AF21F33C1F6FF731B78DAB24AF21D33C1F6FF731B78DBB29A4207D244F6D713C4F200034FF01002E2
:404240001A7041E04AF21C33C1F6FF731B78DBB203F00203002B1CD04AF21E33C1F6FF731B78DBB243F00903DAB24AF21E33C1F6FF731A704AF21433C1F6FF734FF0600282
:404280001A704EF28013CEF200034FF400421A601AE044F6D613C4F2000344F6D612C4F200021278D2B242F01002D2B21A7044F6D713C4F200034FF000021A7004E04FF004
:4042C0000000FCF7BDFE00BFFB7903F02003002B43D04AF21433C1F6FF731B78DBB203F00803002B02D04FF0010201E04FF002024AF21E33C1F6FF731B78DBB21343DAB2A4
:404300004AF21E33C1F6FF731A7044F6D613C4F2000344F6D612C4F200021278D2B222F01002D2B21A704AF21433C1F6FF734FF010021A7011E04AF21433C1F6FF731B7890
:40434000DBB203F01003DBB2002B06D14AF21433C1F6FF734FF010021A7007F10807BD4680BD00BF80B400AF44F6D613C4F200031B78DAB248F26423C1F6FF739A7044F682
:40438000C813C4F200031B78DAB248F26423C1F6FF735A7044F6DB13C4F200031B78DAB248F26423C1F6FF73DA7044F6DC13C4F200031B78DAB248F26423C1F6FF731A71EC
:4043C000BD4680BC704700BF80B500AF44F2A533C4F200031B78DBB203F00403002B0CBF00230123DBB21A4648F26423C1F6FF731A7044F2A533C4F200031B78DBB203F0CB
:404400000403002B01D0FFF743FCFFF7ABFF80BD80B582B000AF44F23133C4F200031B78DBB203F00403DBB2002B20D0FCF7FEFD0346FB7144F23133C4F2000344F23132AD
:40444000C4F200021278D2B222F00402D2B21A70FB791846FCF7EEFD44F6D613C4F2000348F26422C1F6FF7292781A7027E044F6C813C4F2000348F26422C1F6FF725278C1
:404480001A7044F6D613C4F2000348F26422C1F6FF7292781A7044F6DB13C4F2000348F26422C1F6FF72D2781A7044F6DC13C4F2000348F26422C1F6FF7212791A7007F1A6
:4044C0000807BD4680BD00BF80B500AFFFF7A0FF48F26423C1F6FF731B78002B08D0FFF78FFB4FF46143CEF200034FF400421A6080BD00BF80B485B000AF39600146F9712E
:40450000BA717B714FF00203FB733B68002B00F096804AF21433C1F6FF731B78DBB2102B11D144F6D913C4F200031B78DBB203F00803002B03D14FF00003FB7323E04FF007
:404540000103FB731FE04AF21433C1F6FF731B78DBB2602B17D14FF00003FB734EF28023CEF200034FF400421A604AF21E33C1F6FF731B78DBB223F00803DAB24AF21E3329
:40458000C1F6FF731A70FB7B002B58D14AF21433C1F6FF734FF045021A7044F6D813C4F20003FA794FEA4202D2B21A704AF22033C1F6FF734FF000021A704AF22833C1F615
:4045C000FF73BA791A704AF21833C1F6FF733A681A604AF21C33C1F6FF737A791A707B7903F00103002B0ED044F6D913C4F200034FF012021A7044F6D713C4F200034FF0C3
:4046000004021A7006E044F6D913C4F200034FF001021A704AF21E33C1F6FF731B78DBB223F00203DAB24AF21E33C1F6FF731A704FF46143CEF200034FF400421A60FB7B80
:40464000184607F11407BD4680BC704780B485B000AF39600146F971BA717B714FF00203FB733B68002B00F099804AF21433C1F6FF731B78DBB2102B11D144F6D913C4F20C
:4046800000031B78DBB203F00803002B03D14FF00003FB7323E04FF00103FB731FE04AF21433C1F6FF731B78DBB2602B17D14FF00003FB734EF28023CEF200034FF400425D
:4046C0001A604AF21E33C1F6FF731B78DBB223F00803DAB24AF21E33C1F6FF731A70FB7B002B5BD14AF21433C1F6FF734FF049021A7044F6D813C4F20003FA794FEA420225
:40470000D2B242F00102D2B21A704AF21F33C1F6FF734FF000021A704AF21D33C1F6FF73BA791A704AF22433C1F6FF733A681A604AF21C33C1F6FF737A791A707B7903F0CE
:404740000103002B0ED044F6D913C4F200034FF012021A7044F6D713C4F200034FF004021A7006E044F6D913C4F200034FF001021A704AF21E33C1F6FF731B78DBB223F04A
:404780000103DAB24AF21E33C1F6FF731A704FF46143CEF200034FF400421A60FB7B184607F11407BD4680BC704700BF80B483B000AF4AF21E33C1F6FF731B78FB714AF2DD
:4047C0001433C1F6FF731B78DBB203F04003DBB2002B03D0FB7943F00403FB71FB79184607F10C07BD4680BC704700BF80B483B000AF4AF21E33C1F6FF731B78FB714AF2B5
:404800001E33C1F6FF734FF000021A70FB79184607F10C07BD4680BC704700BF80B400AF4AF21F33C1F6FF734FF000021A704AF21E33C1F6FF731B78DBB223F00103DAB2C3
:404840004AF21E33C1F6FF731A70BD4680BC704780B400AF4AF22033C1F6FF734FF000021A704AF21E33C1F6FF731B78DBB223F00203DAB24AF21E33C1F6FF731A70BD46DF
:4048800080BC704780B400AFBD4680BC704700BF80B400AF45F21113C4F200031B78DBB203F040034FEA9313DBB21846BD4680BC704700BF80B400AF44F28153C4F20003FB
:4048C0001B78DBB203F040034FEA9313DBB21846BD4680BC704700BF80B500AF4FF49E43C4F200034FF49E42C4F200021278D2B202F00102D2B21A7044F60273C4F20003CE
:4049000044F60272C4F200021278D2B222F00302D2B21A7044F60173C4F2000344F60172C4F200021278D2B242F00102D2B21A7044F60B73C4F2000344F60B72C4F20002E1
:404940001278D2B222F03002D2B21A7044F60B73C4F2000344F60B72C4F200021278D2B242F03002D2B21A7044F60B73C4F2000344F60B72C4F200021278D2B222F00F0266
:40498000D2B21A7044F60B73C4F2000344F60B72C4F200021278D2B242F00F02D2B21A7042F6E06000F0D6F842F6E06000F098F84FF0080000F078F880BD00BF80B400AFF6
:4049C00044F2A333C4F2000344F2A332C4F200021278D2B242F00102D2B21A7044F2B333C4F2000344F2B332C4F200021278D2B242F00102D2B21A704FF49E43C4F2000308
:404A00004FF49E42C4F200021278D2B242F00102D2B21A70BD4680BC704700BF80B500AF49F6B143C1F6FF731B78002B08D1FFF753FF49F6B143C1F6FF734FF001021A704E
:404A4000FFF7BCFF80BD00BF80B400AF4FF49E43C4F200034FF49E42C4F200021278D2B222F00102D2B21A7044F2A333C4F2000344F2A332C4F200021278D2B222F0010212
:404A8000D2B21A7044F2B333C4F2000344F2B332C4F200021278D2B222F00102D2B21A70BD4680BC704700BF80B483B000AF0346FB7144F60373C4F20003FA791A7007F131
:404AC0000C07BD4680BC704780B400AF44F60373C4F200031B78DBB21846BD4680BC704780B582B000AF0346FB8044F2A333C4F200031B78DBB203F00103002B03D04FF0FA
:404B00000000FCF79DFA44F2A333C4F2000344F2A332C4F200021278D2B242F00102D2B21A7044F60673C4F20003FA881A8044F2A333C4F2000344F2A332C4F20002127878
:404B4000D2B222F00102D2B21A7007F10807BD4680BD00BF80B483B000AF0346FB8044F60473C4F20003FA881A8007F10C07BD4680BC704780B582B000AF786000F042F80F
:404B8000786800F00BF84FF0070000F01BF800F02DF807F10807BD4680BD00BF80B485B000AF78604EF60853CEF200031B68FB60FB6803F184037A681A6007F11407BD463E
:404BC00080BC704780B483B000AF0346FB714EF21143CEF20003FA794FEA4212D2B21A7007F10C07BD4680BC704700BF80B400AF4FF46143CEF200034FF400321A60BD4653
:404C000080BC704780B400AF4EF28013CEF200034FF400321A60BD4680BC704780B400AF44F2A233C4F2000344F2A232C4F200021278D2B242F00402D2B21A7044F2B2334B
:404C4000C4F2000344F2B232C4F200021278D2B242F00402D2B21A70BD4680BC704700BF80B400AF44F2A233C4F2000344F2A232C4F200021278D2B222F00402D2B21A7003
:404C800044F2B233C4F2000344F2B232C4F200021278D2B222F00402D2B21A70BD4680BC704700BF4FF6FF7070470000014B1868704700BFB49CFF1F0048704700FF00004C
:404CC00000F0BCBD37B501220DF10701054600F0D1FD9DF80740FF2C14BF0A240724284601220DF1070100F0C5FD9DF80700FF2803D1013CE4B2002CF1D13EBD37B5046905
:404D0000857828460DF10701012200F0B3FD9DF807300BB1002003E0013CF2D14FF0FF303EBD37B54FF0FF3305460C468DF8073006E028460DF10701012200F0BBFD013C33
:404D4000002CF6DC3EBD000038B5094C2368032B02DD4FF0FF3509E0DDB2013323601420FEF76AFB04EB850460608570284638BDB49CFF1F08B5034B4FF400711B68984711
:404D800008BD00BF6C82FF1F4FEAD20CACEBD103CCF10F0C10B501336044002410F801CB013B4CEA0424F9D101F00703511A02228A40DC40013A04EA020010BD7FB5130E53
:404DC00085788DF80530130C01F03F018DF80630130A41F040018DF8073000238DF808208DF804101A4601A911F802C000215B00DBB283EA0C0E1EF0800F18BF83F00903E5
:404E00000131082904D04FEA4C0C5FFA8CFCEEE70132052AE7D15B0043F001038DF809308678C4680122304603A900F023FD9DF80C30FF2B04D00CB9FF2009E0013CF1E75A
:404E4000284601A9062200F035FD2846FFF73AFF04B070BDF7B5847806460F4620460121FFF75FFF204600F021FC304609210022FFF7A4FF8DF8070028BBF6680546012224
:404E800020460DF1060100F0F5FC9DF80630FE2B06D0FC2B04D00135ADB2B542EFD112E00DF1070520463946102200F0E3FC29462046012200F0DEFC29462046012200F009
:404EC000D9FC002500E0FF25204600F005FC20460121FFF726FF2846FEBD00002DE9F04F9B46494B89B003EB800305925C684A02029103924FF00309029AA578E678039B4E
:404F00002846022E08BF13461E4600F0E5FB01212846FFF706FFBBF1010F0CBF4FF0110A4FF0120A284600F0C1FB204651463246FFF744FF002851D1059F5E46A378E268F9
:404F4000B44604924FF000081E460FE0012230460DF11F01CDF804C000F08CFC9DF81F20DDF804C0FE2A05D008F10108049B9845ECD333E0284639464FF40072664600F057
:404F800079FC0222284607A900F074FC9DF81C30384601939DF81D80FFF7ECFE4FF6FF729042019B0CD048EA0328404508D0BAF1120F13D120460C210022FFF7FFFE0DE0D6
:404FC000013E02D007F50077B8E7BAF1120F07D120460C213246FFF7F1FE01E04FF0FF36284600F079FB28460121FFF79AFE3EB1B9F1000F02D009F1FF397DE74FF0FF3631
:40500000304609B0BDE8F08FB49CFF1F2DE9F04F99464C4B87B0029203EB80039DF840205D68009103926B78002B40F085804B0201930327009BAC78EE78019A2046022E24
:4050400008BF1A46164600F047FB01212046FFF768FEB9F1010F0CBF4FF0180A4FF0190A204600F023FB284651463246FFF7A6FE8DF81700002850D120460121FFF751FE12
:40508000029ECB46B8463046FFF774FE0DF11707BAF1180F0CBFFE23FC2301228DF817308DF81500030A394620468DF8143000F001FC204631464FF4007200F0FBFB02229D
:4050C000204605A900F0F6FB01222046394600F0D1FB9DF8173003F01F03052B1CD12846FFF70CFEC0B9039A0AB906F50076BBF1010BC8D1BAF1190F474611D106A96FF090
:405100000203204601F8013D012200F0D3FB2846FFF7F4FD20B100E047464FF0FF3600E00026204600F0D8FA20460121FFF7F9FD26B10FB1013F7DE74FF0FF36304607B067
:40514000BDE8F08FB49CFF1F2DE9F04F877887B0044638460D4600F0A9FA20463A210022FFF72CFE064638B1384600F0B5FA38460121FFF7D6FD58E00DF1140804224146A7
:40518000384600F077FB4046FEF716F98046384600F0A2FA01213846FFF7C3FDB8F1000F28F07F02B8BF4FEA987BD2B240F272634FEA1828B8BF0BF0010B1FFA88F8002A06
:4051C00014BF1A460022012111EA080F05D10136F6B24900102E89B2F6D140F27260824233460DD06422724302F5FA6208E011EA080F07D049000133013689B2DBB2F6B247
:405200000F2EF4D964214B434FF6FE7103F5FA6302EA01014FF6FC72384603EA020200F0D3FA10F0FF0F40F099804FF0FF3092E028467E217F22FFF7A7FD8246EB78DFF8FA
:405240002C8103F0030203F0780308EBD30358F822101B7C3846594389B200F06BFA0646002877D06B7803F00702DB1003F00F0308EB82024344126A93F810800292B8F133
:40528000000F67D0A978284603911C221A21FFF77BFD0190BAF1000F1FD1502153222846FFF772FD4FF0010909FA00F92F2131222846FFF769FD1FFA89F982463E212846C8
:4052C00049224FEA5929FFF75FFD0AF1020A09FA0AF9013000FB09F910E0BAF1010F01D0012038E0284630214522FFF74DFD4FEA8029BBF1000F01D00223E37008FB06F2FF
:40530000029B0399B2FBF3F2642303FB01225A437343D208DB089A4294BFE260E360FA235E43019BF6089A400C21B24294BF2261266128460D22FFF727FD0546384600F016
:40534000E1F94FF4007128436070A180C4F80890002000E0FF2007B0BDE8F08FE378A778012B3FF465AF4FF0000A67E798FE0000F0B5857887B004464FF4C871284600F0DE
:40538000D9F9B0F5C87F00F2CC804CF25033E3600026284600F0A0F90A212846FFF7C1FC624B93E8030001902846ADF8081000F07DF9062201A9284600F07CFA2846FFF72D
:4053C00081FC0746284600F087F901212846FFF7A8FC17F0010F03D10136052ED9D1A0E0284600F063F9082120464FF4D572FFF7E5FC10F0040F52D0284600F06DF9A5789C
:405400004FF4FA66284600F051F9002237212046FFF7D4FC28460121FFF783FC292100222046FFF7CBFC0746284600F055F928460121FFF776FC17B90123E3701EE017F0AA
:40544000040F01D1013EDDD14FF4FA66284600F02DF9012100222046FFF7B0FC0746284600F03AF928460121FFF75BFC0FB9E77004E0012F55D1013EE8D152E001AD204695
:405480002946FFF7E7FC00284BD120462946FFF75BFEC0B2002844D10123237043E00422A07805A900F0E6F9284600F015F99DF81730AA2B35D19DF8163003F00F03012BC9
:4054C0002FD1A5784FF4FA66284600F0EFF8002237212046FFF772FC28460121FFF721FC29214FF080422046FFF768FC0746284600F0F2F828460121FFF713FC0FB1013E8C
:40550000E2D101AE20463146FFF7A4FC48B90125E57020463146FFF717FEC0B208B9257001E04FF0FF3007B0F0BD00BFD8FE000010B5084B03EB80035C6823783BB9FFF750
:40554000BFFB20B12046BDE81040FFF711BF4FF0FF3010BDB49CFF1F38B51D46154BA1F57B7103EB80035C68072918D8DFE801F00A17171704041719204600211422FDF75F
:40558000E5FF0CE0237833B92046FFF7F1FE10B14FF0FF3038BDA3882B81A3686B60002038BD2046FDF734FF024B00201A68013A1A6038BDB49CFF1F80B582B000AF034670
:4055C000FB71FB79002B1AD149F6C843C1F6FF731B78002B2ED149F6C843C1F6FF734FF001021A7000F0ACFA4FF03B004FF0010100F0C8FA00F082FA00F0D6F91AE049F6DF
:40560000C843C1F6FF731B78002B15D149F6C843C1F6FF734FF001021A7000F091FA4FF03B004FF0010100F0ADFA00F067FA00F0BBF901E000BF00E000BF07F10807BD4648
:4056400080BD00BF80B584B000AF02460B46FA71BB71FB79002B11D1BB79184600F0E6F900BF00F0C3F9034603F00103DBB2002BF7D000F0F7F90346FB7311E0BB791846C0
:4056800000F0D4F900BF00F0B1F9034603F00103DBB2002BF7D000F0E5F90346FB7300BFFB7B184607F11007BD4680BD80B582B000AF0346FB71FB79002B04D14FF0000030
:4056C00000F070FB04E04FF0000000F06BFB00BF07F10807BD4680BD80B582B000AF0346FB71FB79002B04D14FF0010000F05AFB04E04FF0010000F055FB00BF07F10807E2
:40570000BD4680BD80B485B000AF0346FB71FB79002B03D14FF00003FB6003E04FF00003FB6000BFFB68184607F11407BD4680BC704700BF80B584B000AF02460B46FA7168
:40574000BB80BA8840F28F139A4203D84FF4C873BB8006E0BB88B3F57A6F02D94FF47A63BB80BB884FEA4303FB81FB8945F6C052B2FBF3F39BB2BB60FB79002B0ED100F000
:40578000DFF9BB689BB203F1FF339BB218464FF0010100F0F7F900F0B1F90EE000F0D0F9BB689BB203F1FF339BB218464FF0010100F0E8F900F0A2F900BFBB88184607F138
:4057C0001007BD4680BD00BF80B485B000AF13460246FA710A46BA807B80FB7903F10003032B11D8BA8840F6E4439A4208D87A8840F6E3439A4203D94FF00103FB6015E064
:405800004FF00003FB6011E0BA8840F6E4439A4208D87A8840F6E3439A4203D94FF00103FB6002E04FF00003FB6000BFFB68184607F11407BD4680BC704700BF80B584B09B
:4058400000AF0346FB71FB791846FFF7B5FEFB7903F10003032B03D84FF00203FB6003E04FF00203FB6000BFFB68184607F11007BD4680BD80B584B000AF0346B9607A6091
:40588000FB73FB7B18464FF0FF01FFF7DBFE03461A46BB681A70BB6803F10103BB607B6803F1FF337B607B68002BEAD107F11007BD4680BD80B584B000AF0346B9607A60BC
:4058C000FB73BB681B78BA6802F10102BA60FA7B10461946FFF7B6FE7B6803F1FF337B607B68002BEDD107F11007BD4680BD00BF80B500AF46F28B43C4F200034FF00F02CD
:405900001A7000F0BFF800F071F800F07FF846F28C43C4F200034FF000021A7046F28853C4F200034FF000021A7080BD80B582B000AFFBF77BFB0346FB7146F29B43C4F218
:40594000000346F29B42C4F200021278D2B242F02002D2B21A7046F29C43C4F2000346F29C42C4F200021278D2B242F01002D2B21A7046F29853C4F2000346F29852C4F235
:4059800000021278D2B242F01002D2B21A70FB791846FBF74FFB00F01DF800F021F807F10807BD4680BD00BF80B500AF49F6C943C1F6FF731B78002B08D1FFF799FF49F6A7
:4059C000C943C1F6FF734FF001021A70FFF7AEFF80BD00BF80B400AFBD4680BC704700BF80B400AFBD4680BC704700BF80B483B000AF46F26C43C4F200031B78FB71FB79AE
:405A0000184607F10C07BD4680BC704780B483B000AF46F26853C4F200031B78FB71FB79184607F10C07BD4680BC704780B483B000AF0346FB7100BF46F26C43C4F2000349
:405A40001B78DBB203F00403002BF5D046F24B43C4F20003FA791A7007F10C07BD4680BC704700BF80B483B000AF46F25B43C4F200031B78FB71FB79184607F10C07BD465C
:405A800080BC704780B582B000AF04E046F25B43C4F200031B7846F26853C4F200031B78DBB203F02003002BF0D1FBF7BFFA0346FB7146F29B43C4F2000346F29B42C4F20F
:405AC00000021278D2B242F00102D2B21A7046F29B43C4F2000346F29B42C4F200021278D2B222F00102D2B21A70FB791846FBF7A1FA07F10807BD4680BD00BF80B400AF3E
:405B000044F2A233C4F2000344F2A232C4F200021278D2B242F00102D2B21A7044F2B233C4F2000344F2B232C4F200021278D2B242F00102D2B21A70BD4680BC704700BFE2
:405B400080B400AF44F2A233C4F2000344F2A232C4F200021278D2B222F00102D2B21A7044F2B233C4F2000344F2B232C4F200021278D2B222F00102D2B21A70BD4680BC75
:405B8000704700BF80B584B000AF02460B46FA807B7100F0F7F80346FB7300F0E7F80346BB81FA88BB899A4200F0DC8044F2A233C4F200031B78DBB203F00103FB72FB7BC2
:405BC000002B32D1BB89002B02D0FB88002B2CD1BB89002B14D14FF48143C4F20003FA881A8044F28203C4F2000344F28202C4F200021278D2B222F04002D2B21A70B1E074
:405C000044F28203C4F2000344F28202C4F200021278D2B242F04002D2B21A704FF48143C4F20003FA881A809CE0FB7A002B5CD044F20103C4F200034FF000021A7044F2D6
:405C40001003C4F200034FF001021A7044F21403C4F200034FF000021A7044F20803C4F2000344F20802C4F200021278D2B202F07F02D2B21A7044F28203C4F200031B7833
:405C8000DBB203F00803002B02D0FB88002B2CD144F20203C4F20003BA891A8044F20103C4F200034FF007021A7000BF44F20103C4F200031B78DBB203F00103002BF5D161
:405CC00044F2A233C4F2000344F2A232C4F200021278D2B222F00102D2B21A7044F20103C4F200034FF000021A7044F2A233C4F200031B78DBB203F00103002B1ED044F205
:405D00000203C4F20003FA881A8044F20103C4F200037A79002A02D04FF0030201E04FF001021A7000BF44F20103C4F200031B78DBB203F00103002BF5D113E04FF4814302
:405D4000C4F20003FA881A8044F2A233C4F2000344F2A232C4F200021278D1B2FA7A0A43D2B21A7007F11007BD4680BD80B400AF4FF48143C4F200031B889BB21846BD46A9
:405D800080BC704780B400AF44F28203C4F200031B78DBB203F00703DBB21846BD4680BC704700BF80B485B000AF0346FB7145F26013C4F200031B78DBB223F00103FB7307
:405DC00045F26013C4F20003FA7902F00102D1B2FA7B0A43D2B21A7007F11407BD4680BC704700BF2DE9F041274C84B025680746D5F84841002C41D066681F2E1CDD2348E3
:405E000010B94FF0FF301FE04FF4C870039102920193AFF3008003990446029A019B0028EFD0D5F84861002060602660C5F84841C4F88801C4F88C01656847B9A81C013557
:405E400044F820106560002004B0BDE8F081012000FA05F0D4F8886104EB85080643022FC8F88820C4F88861C8F80831E6D1D4F88C3143EA0002C4F88C21DFE705F5A67494
:405E8000C5F84841B8E700BF08FF000000000000114B124A70B5981A831018D0591E02EB83040D4654F8042D01F00106904775B126B154F8040D8047013D08D054F8043DDF
:405EC0009847013D54F8041D8847013DF6D1BDE870400AF0DDB900BFA00201009C02010048F29863C1F6FF7319687C3100F000B8012200F0C1BA00BFF8B5204F204C381B02
:405F0000871017D07A1E2368012502F001069847AF420FD02EB154F8041F02258847AF4208D0606880470235A268261D90470834AF42F6D1134F144C0AF09EF93B1B9F10AF
:405F400018D07D1E216805F0010601258847AF4211D02EB154F8040F02258047AF420BD0626890470235A368261D98470834AF42F6D1F8BDF8BDF8BDF8BD00BF8402010047
:405F8000840201009002010084020100032AF0B431D941EA00039C072ED106680F68151F031D0C1DBE42C5F3800C24D1032D2A461FD9BCF1000F08D01E68256821461846F6
:405FC00004340433AE4211D015E0214618461C680B68051D0E1D9C420DD1314628462E680D68043A031D0C1DAE4204D1043A032AEBD8214618461AB303780C78A3420AD1EC
:40600000551E0022EB0714D510F8013F11F8014F0122A3420DD0181B10E010F8013F11F8014FA342F7D110F8013F11F8014FA342F1D1AA4202F10202EFD10020F0BC70478B
:406040001046FBE70F2A2DE9F00340F2A18041EA00039B0740F09E800C68A2F1100504604B68AC4643608C68BCF10F0F8460CC68C5F30015C46000F1100301F110042BD997
:4060800075B12568ACF1100C1D6065685D60A5689D60E5681034DD601033BCF10F0F1BD9276804F110061F60676803F110055F60A768ACF1200C9F60E768DF6024691C6174
:4060C000776806F110046F60B7682033AF60F668BCF10F0FEE60E3D8A2F1100828F00F0302F00F0403F1100C032C00EB0C0301EB0C0851D9211F4FEA9109444608EB890CD2
:4061000054F8046BC8EB0C010CF1040C1D46644545F8046BC1F3800112D029B154F8041B644545F8041B0BD0274657F8041B2E4646F8041B64686C603C1D351D6445F3D187
:4061400009F1010C4FEA8C0902F0030208EB09014B44D2B10D789A18DC4303F8015B1419934204F0010410D02CB111F8014F03F8014B934209D04D781C4604F8015B8D780D
:4061800002315D70631C9342F5D1BDE8F00370470346DEE70346DDE741462246D9E700BFF0B48407034600F08D80541E002A00F08780E507CEB211D41A4602F8016B134675
:4061C0001546920710D0621E002C79D003F8016B14469A071D4607D0013CEDE7034603F8016B9A071D46F7D1032C52D9CEB246EA06270F2C47EA07432DD9A4F110021746B6
:406200000F2FC2F300162B606B60AB60EB6005F1100216D93EB1103F136053609360D36010320F2F0DD9203F02F11006136053609360D360136153619361D36120320F2F2E
:40624000F1D8A4F1100222F00F0204F00F041032032C15441DD9271F3E462A46032E42F8043BC7F380070DD927B1043E032E42F8043B07D9174647F8043B083E53603A1DEA
:40628000032EF7D8231F23F00302131D04F00304ED18ACB1C9B2EA432C1905F8011BA318A54203F001020BD01AB105F8011BA54206D02B4603F8011B69705D1CA542F8D153
:4062C000F0BC7047054614468EE700BF2DE9F04F85B0044601F01CFC40F2B1739C42074640F3AD8048F21F53C5F2EB1383FB04056FF4F662A4F26D71A6186FF4C86083FBC6
:40630000019C2218B610E017A4F2B27840F26D1909FB086E83FB0263C0EBE516C0EB65104FF4C87505FB1646642505FB1045C917D217A1EB6C10D6F10106C2EBE31338BF3B
:4063400000260EEB000942F293484FF4A34C7C6004F003040196039599443A4600260294C9F24928C0F2010C117A4A2969D0442979D0029D0198002D5CD04400D2F80CA072
:4063800021184FF60C700B01C0F20000BAF1010F00EB03046BDDA4F10805C15805EB8A052B1BAC42C3F38000494423460ED020B16068231DAB42014408D0AB46181D5B68EC
:4063C0004568C918031D5B452944F7D10AF1FF3E4FEA8E0A081D88FB0035C3172D18C3EBA503C3EBC3055369401B1B1A106948BF0733013854F80A40C0EBC000C318A34249
:4064000002DB073BA342FCDAC9189469136A0CFB01440136E118022E42F81C1FA4D1BB6BFA6901209A42ACBF002301233B6005B0BDE8F08F039B002B18BF01209DE7002080
:40644000F5E75069029B00EB09013BB9039C2CB13B28D4BF002001200918D6E7019B002BF6D10198F8E7546909EB0401CDE749464FF0000AAEE700BF2DE9F84F81460F465B
:40648000904601F045FBD9F8002044F20753CCF22E23824683FB02014FF4A345D0178C18C0EB2443C0F2010505FB1322002A04DA02F5A83606F5C072013B4BF2C531C9F213
:4064C000A21181FB0210D4178518C4EBE5254FF4616606FB152248F68900C8F6880042F29344191D80FB0260C9F2492484FB01B4D6178018C6EB601064184FEAE17CC0EBEE
:406500000016CCEBA404A2EB8602C4EBC406BD608D1B48BF0735002B78603A60BD61C0F2B08048F21F50B04E40F2B274C5F2EB104FF4C87C4FF0640B10E0E21780FB041550
:40654000C2EBE5120CFB1241D1F1010538BF002556F82520934211DB01349B1AA207ECD180FB0421E217C2EB61150BFB15410029E4D0012556F825209342EDDA6A00A4F24B
:406580006C709A495519786100202A01FB6138618D5801EB020BAB4208DB594601263E615B1B51F8045F01369D42F8DD5A1CFA60B8F1000F04D0002038623846BDE8F88FB5
:4065C0008B4E01F08DFA3568002D40F08480C7F82080DAF820204BF2C536C9F2A21686FB0205D117AC18C1EBE4234FF4616000FB132148F68902C8F6880282FB0165CE173D
:406600006C18C6EB64123D68C2EB02167C68B868A1EB8601691AA21AC31A3B2987E80E007CDD01323C3987E806003B2A6FDD01333C3ABB607A60172B77DDF869BA69411CF4
:40664000501C0628FA68C8BF0020F961183BB8613969501CF860BB605BF8213098420BDDC21A481C0C28FA60386105D1796900234A1C3B617A61FB6101F034FA3846BDE80D
:40668000F88F48F21F51584840F2B274C5F2EB114FF4C8764FF0640E0FE0E21781FB04B5C2EBE51206FB1245D5F1010538BF002550F825209B187FF561AF013CA507ECD161
:4066C00081FB0425E217C2EB65150EFB1545002DE4D00125ECE7DAF80410A14204D02046FFF7F4FD00284AD0DAF80030002B36D0D9F80050DAF81C108D4244DBDAF83840E2
:40670000A54240DA01203862DAF83C2063E7002A91DA013B3C32BB607A608CE7002984DA013A3C3187E806007FE7002BA4DAF869BA69411E501EFA6848BF0620F961183346
:40674000511EB861F960BB60002995D13B69581E1CD4386182005BF80210F9608CE7D9F80000DAF81C209042CCDADAF83860B042ACBF0020012038620028C5D129E74FF032
:40678000FF343C6225E700233B6222E77A690B21531E9A0739617B6115D0DA1748F21F56C5F2EB1686FB03604FF4C871C2EBE01201FB1233D3F1010638BF002606F26D10C2
:4067C000F8612C22C7E748F21F50C5F2EB1080FB0301DA17C2EB6111642000FB11310029DCD04FF4B770EBE76CFF00000CFF0000CC9CFF1F0EB4F0B59CB021AC4FF4017256
:4068000054F8046BADF814200290069000F022F8074648F2986000253246C1F6FF7046F65106C0F200060E95139502A94FF6FF7523460068039707970A96ADF8165001940D
:4068400000F072F81CB0BDE8F04003B0704700BF0020704720F0030110F00300C0F1000051F8043B00F1040C4FEACC0C6FF000021CBF22FA0CF213434FF0010C4CEA0C2C55
:406880004CEA0C4CA3EB0C0222EA030212EACC1204BF51F8043B0430F4D013F0FF0F1FBF013013F47F4F013013F47F0F18BF0130704700BF48F29863C1F6FF731A68012343
:4068C0005C3200F001B800BFF0B4002825D0074638463E780D46013715F8014B3CB1A642FAD1002BF4D1176007F8013C11E0C6B13D4600E01BB915F8016B0C46284614F855
:40690000013B9E42F6D136B1002105F8011C1060781EF0BC70473046F9E710680028D6D1F7E716603046F4E72DE9F04F8B46ADF52F7D04461546059301F0E6F8BBF80C3038
:4069400003F4005210B248B9DBF8641043F4005621F40057ABF80C60CBF864702A46164616F8013B002707970B97B9460997DFF87CA411937BB3DAF80000C118497801F0E3
:406980000801C9B200292DD0DBF8041014E0DBF80000DAF800200178431C5018427802F00801C8B280B1DBF8042009F10109511ECBF80410CBF800300029E8DC20465946C7
:4069C00002F00EFF0028E2D03246164616F8013B1193002BCFD101F099F809980DF52F7DBDE8F08F252B17D0DBF80410002940F39580DBF8003016F8010C1A788242EAD17E
:406A0000DBF804100133481ECBF80400CBF8003009F101093246D8E7537888460D46721C782B00F21684DFE813F02E0414041404140414041404140414041404140414044B
:406A400014041404140414041404140414041404140414041404140414041404140414041404140414041404140414041404140414041404960414041404140414049A040E
:406A800014041404140414041404350435043504350435043504350435043504350414041404140414041404140414041404140414043F0443041404430414041404140403
:406AC00014044604140414044C04140414041404140414041404140414045504140414045E04140414041404140414041404140468046D044304430443046F0475041404AB
:406B000014047C0414048504A804A00414041404A404140490001404140455042046594602F05EFE00283FF464AF00F0EFFF099F3FB1BBF80C2002F040010BB2002B3FF45F
:406B40004CAF4FF0FF35099547E7A74F0A20089207970B900326DBF80410002940F38B8318F0400F0FD0013E032E00F21981DFE816F0B101940024003F012046594602F0CE
:406B80002FFE0028D1D1DAF80010DBF8003001E0CBF800301A7801338A18527802F00802D2B2002ADFD0DBF8042009F10109013A002ACBF80420EBDCDFE7681EB0F5AE7F6E
:406BC00084BF6FF4AE76A81956AF88BF40F25D154FF0000E98BF002023460B9CCC4648F45868CDF818E03E468146DBF800201078A0F12B014D2900F2D381DFE811F013025F
:406C0000D1011302D101D1010502EE01EE01EE01EE01EE01EE01EE01FC01FC01D101D101D101D101D101D101D101F701F701F701F701F701F701D101D101D101D101D10197
:406C4000D101D101D101D101D101D101D101D101D101D101D101D101B701D101D101D101D101D101D101D101D101F701F701F701F701F701F701D101D101D101D101D1010A
:406C8000D101D101D101D101D101D101D101D101D101D101D101D101B701002D08BF4FF0FF3518F0010640F06A8318F0100F40F04884059F059A3968101D4F1C4E19F51B9B
:406CC000EB0706910590DBF800201ED51378DAF80010DDF81880C818457805F00803D9B2002940F08A84DBF80400B846451ECBF8045012F8013B07F8013CDBF80410CBF8AC
:406D00000020002940F39985013715781046DAF8002007F1FF38531959787D1C01F00802D3B2002B40F06984DBF80410B8464A1ECBF8042010F8013BB74207F8013CCBF86F
:406D4000000000F05A84DBF80410002940F3F083DAF8001002460078B8460F187B786F1C03F00801C8B2002840F04784DBF80430A846591ECBF8041012F8010B05F8010C4E
:406D8000DBF80450CBF80020002DBEDC2046594602F026FD002840F03084DBF80020B4E7002D08BF012518F0010640F0598418F0100F00F0CE84DBF804202046AA425946C7
:406DC000DBF8003080F2F5849B18CBF80030B618AD1A02F005FD0028EDD0002E3FF4A5AEB144089E3246F0E5219400009C86FF1F6B1EB3F5AE7F84BF6FF4AE702B1856A99C
:406E00008CBF40F25D150023002648F4F0670A940491B4460C960E9606960D960DF5AC783446DBF800201078A0F12B014E2900F21781DFE811F0A7011501A701B9011501FE
:406E4000AD01FD00FD00FD00FD00FD00FD00FD00FD00FD001501150115011501150115011501C001150115011501CC01C70115011501FF011501150115011501EC011501C6
:406E80001501150115011501E7011501150115011501E2011501150115011501150115011501C001150115011501CC01C70115011501FF011501150115011501EC0115019E
:406EC0001501150115011501E7011501150115011501E201002D08BF4FF0FF3518F0100F00F0A3820026EA07DBF8003016AF0FD41A78B95C00293FF46EADDBF80460013329
:406F0000701E01260028CBF80400CBF8003023DD19785A1C785C002800F00A84DBF804300136013BB5428BE80C00B0463FF458AF002B40F37082531C1278B95C002900F0A2
:406F4000F783DBF80460CBF80030701E0028CBF8040008F10106DBDC2046594602F040FC00287FF43DAFDBF80030D1E708F4C061B1F5007F14D128F4007848F4A068102491
:406F800006F8010BDBF80400411E0029CBF8041040F333820132CBF80020013D7FF425AE18F4807F0B94E1461C460BD0BE4206D916F8011C18465A4602F0D2FB013EBE42FB
:406FC0003FF409AD18F0100500F03383F61B069FF319089E99443246F7E44FF67471C0F2000131F9144028F43868C9E70A2CD7DD28F43868C4E74FF6747EC0F2000E3EF907
:407000001440082CF4DCCBE718F4006FB8D014B948F40078082418F4806F00F08E8328F4B068ADE718F0800FBAD028F08008A7E70CEB0601A1B927F4C07708F8010BDBF8FA
:407040000400013D411E0029CBF8041009F1010940F3BF810132CBF80020002D7FF4E1AE069406980A9C002840F0C4810CF1FF31012940F2FF84731E062B3FD8022E40F2F1
:40708000C984032E3AD0043E08F1FF3CF2B2C2EB0C06C8EB06006FEA000E65460A9218F8011C0EF0010320465A46CDF80CC00F9302F056FBB542DDF80CC018D00F9941B143
:4070C000013D20461CF8011C5A4602F049FBB5420DD015F8011D5A46204602F041FB15F8011D20465A4602F03BFBB542F1D10A9D09F1FF39EA439044C5EB0909FA051BD515
:407100007B0500F15E8418F8011C08F1FF35652909F1FF390BD0452909D020465A4602F01FFB18F8021CA8F1020509F1FF3920465A4602F015FBA84617F0100240F04581A9
:4071400007F4C066B6F5806F88F8002000F069830E9D002D40F051830022204656A901F097F8FE0702460B4640F10883059F3D6804370597C5E90023099A089E551C099552
:40718000324622E439067FF56BAF27F0800754E7F9057FF54DAF27F080070134002B3FF44EAF013B01354AE7B9057FF559AF27F420770D9441E7BCF1010F7FF451AF4FF048
:4071C000020C3AE7022E7FF44BAF032635E707F4A061B1F5806F03D079057FF541AFACB3B90504D40D99CDF83080641A0E9427F4F06747F4C07700241FE7072E7FF430AF73
:4072000008261AE7062E7FF42BAF072615E7BCF1000F40F000822CB907F4E061B1F5E06F00F0C183012E02D0042E7FF419AF0136F6B202E7002E40F0F581002C40F0AD8228
